{
  "_format": "hh-sol-artifact-1",
  "contractName": "LotteryController",
  "sourceName": "contracts/Controller.sol",
  "abi": [
    {
      "inputs": [
        {
          "internalType": "contract LotteryToken",
          "name": "_token",
          "type": "address"
        },
        {
          "internalType": "contract Lottery",
          "name": "_lottery",
          "type": "address"
        },
        {
          "internalType": "address[]",
          "name": "proposers",
          "type": "address[]"
        },
        {
          "internalType": "address[]",
          "name": "executors",
          "type": "address[]"
        }
      ],
      "stateMutability": "nonpayable",
      "type": "constructor"
    },
    {
      "anonymous": false,
      "inputs": [
        {
          "indexed": true,
          "internalType": "bytes32",
          "name": "id",
          "type": "bytes32"
        },
        {
          "indexed": true,
          "internalType": "uint256",
          "name": "index",
          "type": "uint256"
        },
        {
          "indexed": false,
          "internalType": "address",
          "name": "target",
          "type": "address"
        },
        {
          "indexed": false,
          "internalType": "uint256",
          "name": "value",
          "type": "uint256"
        },
        {
          "indexed": false,
          "internalType": "bytes",
          "name": "data",
          "type": "bytes"
        }
      ],
      "name": "CallExecuted",
      "type": "event"
    },
    {
      "anonymous": false,
      "inputs": [
        {
          "indexed": true,
          "internalType": "bytes32",
          "name": "id",
          "type": "bytes32"
        },
        {
          "indexed": true,
          "internalType": "uint256",
          "name": "index",
          "type": "uint256"
        },
        {
          "indexed": false,
          "internalType": "address",
          "name": "target",
          "type": "address"
        },
        {
          "indexed": false,
          "internalType": "uint256",
          "name": "value",
          "type": "uint256"
        },
        {
          "indexed": false,
          "internalType": "bytes",
          "name": "data",
          "type": "bytes"
        },
        {
          "indexed": false,
          "internalType": "bytes32",
          "name": "predecessor",
          "type": "bytes32"
        },
        {
          "indexed": false,
          "internalType": "uint256",
          "name": "delay",
          "type": "uint256"
        }
      ],
      "name": "CallScheduled",
      "type": "event"
    },
    {
      "anonymous": false,
      "inputs": [
        {
          "indexed": true,
          "internalType": "bytes32",
          "name": "id",
          "type": "bytes32"
        }
      ],
      "name": "Cancelled",
      "type": "event"
    },
    {
      "anonymous": false,
      "inputs": [
        {
          "indexed": false,
          "internalType": "uint256",
          "name": "oldDuration",
          "type": "uint256"
        },
        {
          "indexed": false,
          "internalType": "uint256",
          "name": "newDuration",
          "type": "uint256"
        }
      ],
      "name": "MinDelayChange",
      "type": "event"
    },
    {
      "anonymous": false,
      "inputs": [
        {
          "indexed": false,
          "internalType": "address",
          "name": "account",
          "type": "address"
        }
      ],
      "name": "Paused",
      "type": "event"
    },
    {
      "anonymous": false,
      "inputs": [
        {
          "indexed": true,
          "internalType": "bytes32",
          "name": "role",
          "type": "bytes32"
        },
        {
          "indexed": true,
          "internalType": "bytes32",
          "name": "previousAdminRole",
          "type": "bytes32"
        },
        {
          "indexed": true,
          "internalType": "bytes32",
          "name": "newAdminRole",
          "type": "bytes32"
        }
      ],
      "name": "RoleAdminChanged",
      "type": "event"
    },
    {
      "anonymous": false,
      "inputs": [
        {
          "indexed": true,
          "internalType": "bytes32",
          "name": "role",
          "type": "bytes32"
        },
        {
          "indexed": true,
          "internalType": "address",
          "name": "account",
          "type": "address"
        },
        {
          "indexed": true,
          "internalType": "address",
          "name": "sender",
          "type": "address"
        }
      ],
      "name": "RoleGranted",
      "type": "event"
    },
    {
      "anonymous": false,
      "inputs": [
        {
          "indexed": true,
          "internalType": "bytes32",
          "name": "role",
          "type": "bytes32"
        },
        {
          "indexed": true,
          "internalType": "address",
          "name": "account",
          "type": "address"
        },
        {
          "indexed": true,
          "internalType": "address",
          "name": "sender",
          "type": "address"
        }
      ],
      "name": "RoleRevoked",
      "type": "event"
    },
    {
      "anonymous": false,
      "inputs": [
        {
          "indexed": false,
          "internalType": "address",
          "name": "account",
          "type": "address"
        }
      ],
      "name": "Unpaused",
      "type": "event"
    },
    {
      "inputs": [],
      "name": "CANCELLER_ROLE",
      "outputs": [
        {
          "internalType": "bytes32",
          "name": "",
          "type": "bytes32"
        }
      ],
      "stateMutability": "view",
      "type": "function"
    },
    {
      "inputs": [],
      "name": "DEFAULT_ADMIN_ROLE",
      "outputs": [
        {
          "internalType": "bytes32",
          "name": "",
          "type": "bytes32"
        }
      ],
      "stateMutability": "view",
      "type": "function"
    },
    {
      "inputs": [],
      "name": "DRAW_ROLE",
      "outputs": [
        {
          "internalType": "bytes32",
          "name": "",
          "type": "bytes32"
        }
      ],
      "stateMutability": "view",
      "type": "function"
    },
    {
      "inputs": [],
      "name": "EXECUTOR_ROLE",
      "outputs": [
        {
          "internalType": "bytes32",
          "name": "",
          "type": "bytes32"
        }
      ],
      "stateMutability": "view",
      "type": "function"
    },
    {
      "inputs": [],
      "name": "PROPOSER_ROLE",
      "outputs": [
        {
          "internalType": "bytes32",
          "name": "",
          "type": "bytes32"
        }
      ],
      "stateMutability": "view",
      "type": "function"
    },
    {
      "inputs": [],
      "name": "TIMELOCK_ADMIN_ROLE",
      "outputs": [
        {
          "internalType": "bytes32",
          "name": "",
          "type": "bytes32"
        }
      ],
      "stateMutability": "view",
      "type": "function"
    },
    {
      "inputs": [],
      "name": "canDraw",
      "outputs": [
        {
          "internalType": "bool",
          "name": "",
          "type": "bool"
        }
      ],
      "stateMutability": "view",
      "type": "function"
    },
    {
      "inputs": [
        {
          "internalType": "bytes32",
          "name": "id",
          "type": "bytes32"
        }
      ],
      "name": "cancel",
      "outputs": [],
      "stateMutability": "nonpayable",
      "type": "function"
    },
    {
      "inputs": [],
      "name": "cancelFailedDrawing",
      "outputs": [],
      "stateMutability": "nonpayable",
      "type": "function"
    },
    {
      "inputs": [],
      "name": "closeRound",
      "outputs": [],
      "stateMutability": "nonpayable",
      "type": "function"
    },
    {
      "inputs": [
        {
          "internalType": "uint64",
          "name": "vrfSubscriptionId",
          "type": "uint64"
        },
        {
          "internalType": "bytes32",
          "name": "vrfKeyHash",
          "type": "bytes32"
        }
      ],
      "name": "draw",
      "outputs": [],
      "stateMutability": "nonpayable",
      "type": "function"
    },
    {
      "inputs": [
        {
          "internalType": "address",
          "name": "target",
          "type": "address"
        },
        {
          "internalType": "uint256",
          "name": "value",
          "type": "uint256"
        },
        {
          "internalType": "bytes",
          "name": "payload",
          "type": "bytes"
        },
        {
          "internalType": "bytes32",
          "name": "predecessor",
          "type": "bytes32"
        },
        {
          "internalType": "bytes32",
          "name": "salt",
          "type": "bytes32"
        }
      ],
      "name": "execute",
      "outputs": [],
      "stateMutability": "payable",
      "type": "function"
    },
    {
      "inputs": [
        {
          "internalType": "address[]",
          "name": "targets",
          "type": "address[]"
        },
        {
          "internalType": "uint256[]",
          "name": "values",
          "type": "uint256[]"
        },
        {
          "internalType": "bytes[]",
          "name": "payloads",
          "type": "bytes[]"
        },
        {
          "internalType": "bytes32",
          "name": "predecessor",
          "type": "bytes32"
        },
        {
          "internalType": "bytes32",
          "name": "salt",
          "type": "bytes32"
        }
      ],
      "name": "executeBatch",
      "outputs": [],
      "stateMutability": "payable",
      "type": "function"
    },
    {
      "inputs": [],
      "name": "findWinners",
      "outputs": [],
      "stateMutability": "nonpayable",
      "type": "function"
    },
    {
      "inputs": [
        {
          "internalType": "address",
          "name": "account",
          "type": "address"
        },
        {
          "internalType": "uint256",
          "name": "index",
          "type": "uint256"
        }
      ],
      "name": "getAccountRevenueRecord",
      "outputs": [
        {
          "internalType": "uint256",
          "name": "blockNumber",
          "type": "uint256"
        },
        {
          "internalType": "uint256",
          "name": "globalRevenue",
          "type": "uint256"
        },
        {
          "internalType": "uint256",
          "name": "accountRevenue",
          "type": "uint256"
        }
      ],
      "stateMutability": "view",
      "type": "function"
    },
    {
      "inputs": [],
      "name": "getMinDelay",
      "outputs": [
        {
          "internalType": "uint256",
          "name": "duration",
          "type": "uint256"
        }
      ],
      "stateMutability": "view",
      "type": "function"
    },
    {
      "inputs": [
        {
          "internalType": "uint256",
          "name": "index",
          "type": "uint256"
        }
      ],
      "name": "getRevenueRecord",
      "outputs": [
        {
          "internalType": "uint256",
          "name": "",
          "type": "uint256"
        },
        {
          "internalType": "uint256",
          "name": "",
          "type": "uint256"
        }
      ],
      "stateMutability": "view",
      "type": "function"
    },
    {
      "inputs": [
        {
          "internalType": "bytes32",
          "name": "role",
          "type": "bytes32"
        }
      ],
      "name": "getRoleAdmin",
      "outputs": [
        {
          "internalType": "bytes32",
          "name": "",
          "type": "bytes32"
        }
      ],
      "stateMutability": "view",
      "type": "function"
    },
    {
      "inputs": [
        {
          "internalType": "bytes32",
          "name": "id",
          "type": "bytes32"
        }
      ],
      "name": "getTimestamp",
      "outputs": [
        {
          "internalType": "uint256",
          "name": "timestamp",
          "type": "uint256"
        }
      ],
      "stateMutability": "view",
      "type": "function"
    },
    {
      "inputs": [
        {
          "internalType": "address",
          "name": "account",
          "type": "address"
        }
      ],
      "name": "getUnclaimedRevenue",
      "outputs": [
        {
          "internalType": "uint256",
          "name": "revenue",
          "type": "uint256"
        }
      ],
      "stateMutability": "view",
      "type": "function"
    },
    {
      "inputs": [
        {
          "internalType": "bytes32",
          "name": "role",
          "type": "bytes32"
        },
        {
          "internalType": "address",
          "name": "account",
          "type": "address"
        }
      ],
      "name": "grantRole",
      "outputs": [],
      "stateMutability": "nonpayable",
      "type": "function"
    },
    {
      "inputs": [
        {
          "internalType": "bytes32",
          "name": "role",
          "type": "bytes32"
        },
        {
          "internalType": "address",
          "name": "account",
          "type": "address"
        }
      ],
      "name": "hasRole",
      "outputs": [
        {
          "internalType": "bool",
          "name": "",
          "type": "bool"
        }
      ],
      "stateMutability": "view",
      "type": "function"
    },
    {
      "inputs": [
        {
          "internalType": "address",
          "name": "target",
          "type": "address"
        },
        {
          "internalType": "uint256",
          "name": "value",
          "type": "uint256"
        },
        {
          "internalType": "bytes",
          "name": "data",
          "type": "bytes"
        },
        {
          "internalType": "bytes32",
          "name": "predecessor",
          "type": "bytes32"
        },
        {
          "internalType": "bytes32",
          "name": "salt",
          "type": "bytes32"
        }
      ],
      "name": "hashOperation",
      "outputs": [
        {
          "internalType": "bytes32",
          "name": "hash",
          "type": "bytes32"
        }
      ],
      "stateMutability": "pure",
      "type": "function"
    },
    {
      "inputs": [
        {
          "internalType": "address[]",
          "name": "targets",
          "type": "address[]"
        },
        {
          "internalType": "uint256[]",
          "name": "values",
          "type": "uint256[]"
        },
        {
          "internalType": "bytes[]",
          "name": "payloads",
          "type": "bytes[]"
        },
        {
          "internalType": "bytes32",
          "name": "predecessor",
          "type": "bytes32"
        },
        {
          "internalType": "bytes32",
          "name": "salt",
          "type": "bytes32"
        }
      ],
      "name": "hashOperationBatch",
      "outputs": [
        {
          "internalType": "bytes32",
          "name": "hash",
          "type": "bytes32"
        }
      ],
      "stateMutability": "pure",
      "type": "function"
    },
    {
      "inputs": [
        {
          "internalType": "bytes32",
          "name": "id",
          "type": "bytes32"
        }
      ],
      "name": "isOperation",
      "outputs": [
        {
          "internalType": "bool",
          "name": "registered",
          "type": "bool"
        }
      ],
      "stateMutability": "view",
      "type": "function"
    },
    {
      "inputs": [
        {
          "internalType": "bytes32",
          "name": "id",
          "type": "bytes32"
        }
      ],
      "name": "isOperationDone",
      "outputs": [
        {
          "internalType": "bool",
          "name": "done",
          "type": "bool"
        }
      ],
      "stateMutability": "view",
      "type": "function"
    },
    {
      "inputs": [
        {
          "internalType": "bytes32",
          "name": "id",
          "type": "bytes32"
        }
      ],
      "name": "isOperationPending",
      "outputs": [
        {
          "internalType": "bool",
          "name": "pending",
          "type": "bool"
        }
      ],
      "stateMutability": "view",
      "type": "function"
    },
    {
      "inputs": [
        {
          "internalType": "bytes32",
          "name": "id",
          "type": "bytes32"
        }
      ],
      "name": "isOperationReady",
      "outputs": [
        {
          "internalType": "bool",
          "name": "ready",
          "type": "bool"
        }
      ],
      "stateMutability": "view",
      "type": "function"
    },
    {
      "inputs": [
        {
          "internalType": "address",
          "name": "",
          "type": "address"
        }
      ],
      "name": "lastWithdrawalBlock",
      "outputs": [
        {
          "internalType": "uint256",
          "name": "",
          "type": "uint256"
        }
      ],
      "stateMutability": "view",
      "type": "function"
    },
    {
      "inputs": [],
      "name": "lottery",
      "outputs": [
        {
          "internalType": "contract Lottery",
          "name": "",
          "type": "address"
        }
      ],
      "stateMutability": "view",
      "type": "function"
    },
    {
      "inputs": [],
      "name": "numRevenueRecords",
      "outputs": [
        {
          "internalType": "uint256",
          "name": "",
          "type": "uint256"
        }
      ],
      "stateMutability": "view",
      "type": "function"
    },
    {
      "inputs": [
        {
          "internalType": "address",
          "name": "",
          "type": "address"
        },
        {
          "internalType": "address",
          "name": "",
          "type": "address"
        },
        {
          "internalType": "uint256[]",
          "name": "",
          "type": "uint256[]"
        },
        {
          "internalType": "uint256[]",
          "name": "",
          "type": "uint256[]"
        },
        {
          "internalType": "bytes",
          "name": "",
          "type": "bytes"
        }
      ],
      "name": "onERC1155BatchReceived",
      "outputs": [
        {
          "internalType": "bytes4",
          "name": "",
          "type": "bytes4"
        }
      ],
      "stateMutability": "nonpayable",
      "type": "function"
    },
    {
      "inputs": [
        {
          "internalType": "address",
          "name": "",
          "type": "address"
        },
        {
          "internalType": "address",
          "name": "",
          "type": "address"
        },
        {
          "internalType": "uint256",
          "name": "",
          "type": "uint256"
        },
        {
          "internalType": "uint256",
          "name": "",
          "type": "uint256"
        },
        {
          "internalType": "bytes",
          "name": "",
          "type": "bytes"
        }
      ],
      "name": "onERC1155Received",
      "outputs": [
        {
          "internalType": "bytes4",
          "name": "",
          "type": "bytes4"
        }
      ],
      "stateMutability": "nonpayable",
      "type": "function"
    },
    {
      "inputs": [
        {
          "internalType": "address",
          "name": "",
          "type": "address"
        },
        {
          "internalType": "address",
          "name": "",
          "type": "address"
        },
        {
          "internalType": "uint256",
          "name": "",
          "type": "uint256"
        },
        {
          "internalType": "bytes",
          "name": "",
          "type": "bytes"
        }
      ],
      "name": "onERC721Received",
      "outputs": [
        {
          "internalType": "bytes4",
          "name": "",
          "type": "bytes4"
        }
      ],
      "stateMutability": "nonpayable",
      "type": "function"
    },
    {
      "inputs": [],
      "name": "pause",
      "outputs": [],
      "stateMutability": "nonpayable",
      "type": "function"
    },
    {
      "inputs": [],
      "name": "paused",
      "outputs": [
        {
          "internalType": "bool",
          "name": "",
          "type": "bool"
        }
      ],
      "stateMutability": "view",
      "type": "function"
    },
    {
      "inputs": [
        {
          "internalType": "bytes32",
          "name": "role",
          "type": "bytes32"
        },
        {
          "internalType": "address",
          "name": "account",
          "type": "address"
        }
      ],
      "name": "renounceRole",
      "outputs": [],
      "stateMutability": "nonpayable",
      "type": "function"
    },
    {
      "inputs": [
        {
          "internalType": "bytes32",
          "name": "role",
          "type": "bytes32"
        },
        {
          "internalType": "address",
          "name": "account",
          "type": "address"
        }
      ],
      "name": "revokeRole",
      "outputs": [],
      "stateMutability": "nonpayable",
      "type": "function"
    },
    {
      "inputs": [
        {
          "internalType": "address",
          "name": "target",
          "type": "address"
        },
        {
          "internalType": "uint256",
          "name": "value",
          "type": "uint256"
        },
        {
          "internalType": "bytes",
          "name": "data",
          "type": "bytes"
        },
        {
          "internalType": "bytes32",
          "name": "predecessor",
          "type": "bytes32"
        },
        {
          "internalType": "bytes32",
          "name": "salt",
          "type": "bytes32"
        },
        {
          "internalType": "uint256",
          "name": "delay",
          "type": "uint256"
        }
      ],
      "name": "schedule",
      "outputs": [],
      "stateMutability": "nonpayable",
      "type": "function"
    },
    {
      "inputs": [
        {
          "internalType": "address[]",
          "name": "targets",
          "type": "address[]"
        },
        {
          "internalType": "uint256[]",
          "name": "values",
          "type": "uint256[]"
        },
        {
          "internalType": "bytes[]",
          "name": "payloads",
          "type": "bytes[]"
        },
        {
          "internalType": "bytes32",
          "name": "predecessor",
          "type": "bytes32"
        },
        {
          "internalType": "bytes32",
          "name": "salt",
          "type": "bytes32"
        },
        {
          "internalType": "uint256",
          "name": "delay",
          "type": "uint256"
        }
      ],
      "name": "scheduleBatch",
      "outputs": [],
      "stateMutability": "nonpayable",
      "type": "function"
    },
    {
      "inputs": [
        {
          "internalType": "bytes4",
          "name": "interfaceId",
          "type": "bytes4"
        }
      ],
      "name": "supportsInterface",
      "outputs": [
        {
          "internalType": "bool",
          "name": "",
          "type": "bool"
        }
      ],
      "stateMutability": "view",
      "type": "function"
    },
    {
      "inputs": [],
      "name": "token",
      "outputs": [
        {
          "internalType": "contract LotteryToken",
          "name": "",
          "type": "address"
        }
      ],
      "stateMutability": "view",
      "type": "function"
    },
    {
      "inputs": [],
      "name": "unpause",
      "outputs": [],
      "stateMutability": "nonpayable",
      "type": "function"
    },
    {
      "inputs": [
        {
          "internalType": "uint256",
          "name": "newDelay",
          "type": "uint256"
        }
      ],
      "name": "updateDelay",
      "outputs": [],
      "stateMutability": "nonpayable",
      "type": "function"
    },
    {
      "inputs": [
        {
          "internalType": "address payable",
          "name": "account",
          "type": "address"
        }
      ],
      "name": "withdraw",
      "outputs": [],
      "stateMutability": "nonpayable",
      "type": "function"
    },
    {
      "stateMutability": "payable",
      "type": "receive"
    }
  ],
  "bytecode": "0x60c060405260006005553480156200001657600080fd5b50604051620037143803806200371483398101604081905262000039916200048c565b6000828233620000596000805160206200367483398151915280620002a3565b62000083600080516020620036b483398151915260008051602062003674833981519152620002a3565b620000ad600080516020620036d483398151915260008051602062003674833981519152620002a3565b620000d7600080516020620036f483398151915260008051602062003674833981519152620002a3565b620000f26000805160206200367483398151915230620002ee565b6001600160a01b038116156200011d576200011d6000805160206200367483398151915282620002ee565b60005b8351811015620001a35762000167600080516020620036b483398151915285838151811062000153576200015362000521565b6020026020010151620002ee60201b60201c565b62000190600080516020620036f483398151915285838151811062000153576200015362000521565b6200019b8162000537565b905062000120565b5060005b8251811015620001ed57620001da600080516020620036d483398151915284838151811062000153576200015362000521565b620001e58162000537565b9050620001a7565b5060028490556040805160008152602081018690527f11c24f4ead16507c69ac467fbd5e4eed5fb5c699626d2cc6d66421df253886d5910160405180910390a150506003805460ff19169055505060016004556001600160a01b03808516608052831660a0526200027d6000805160206200369483398151915260008051602062003674833981519152620002a3565b62000299600080516020620036948339815191526000620002ee565b505050506200055f565b600082815260208190526040808220600101805490849055905190918391839186917fbd79b86ffe0ab8e8776151514217cd7cacd52c909f66475c3af44e129f0b00ff9190a4505050565b620002fa8282620002fe565b5050565b6000828152602081815260408083206001600160a01b038516845290915290205460ff16620002fa576000828152602081815260408083206001600160a01b03851684529091529020805460ff191660011790556200035a3390565b6001600160a01b0316816001600160a01b0316837f2f8788117e7eff1d82e926ec794901d17c78024a50270940304540a733656f0d60405160405180910390a45050565b6001600160a01b0381168114620003b457600080fd5b50565b634e487b7160e01b600052604160045260246000fd5b8051620003da816200039e565b919050565b600082601f830112620003f157600080fd5b815160206001600160401b0380831115620004105762000410620003b7565b8260051b604051601f19603f83011681018181108482111715620004385762000438620003b7565b6040529384528581018301938381019250878511156200045757600080fd5b83870191505b8482101562000481576200047182620003cd565b835291830191908301906200045d565b979650505050505050565b60008060008060808587031215620004a357600080fd5b8451620004b0816200039e565b6020860151909450620004c3816200039e565b60408601519093506001600160401b0380821115620004e157600080fd5b620004ef88838901620003df565b935060608701519150808211156200050657600080fd5b506200051587828801620003df565b91505092959194509250565b634e487b7160e01b600052603260045260246000fd5b6000600182016200055857634e487b7160e01b600052601160045260246000fd5b5060010190565b60805160a0516130a2620005d26000396000818161081601528181610e8301528181610f7b01528181611041015281816112500152818161157d015281816118980152611a31015260008181610a0c01528181610c8801528181610d6e01528181611389015261144001526130a26000f3fe6080604052600436106102f65760003560e01c8063731c18841161018f578063bc197c81116100e1578063e278fe6f1161008a578063f23a6e6111610064578063f23a6e61146109a0578063f27a0c92146109e5578063fc0c546a146109fa57600080fd5b8063e278fe6f14610944578063e38335e514610959578063f11ebed21461096c57600080fd5b8063d3dc82d5116100bb578063d3dc82d5146108d7578063d45c4435146108f7578063d547741f1461092457600080fd5b8063bc197c811461085d578063c01c5476146108a2578063c4d252f5146108b757600080fd5b806391d1485411610143578063b08e51c01161011d578063b08e51c0146107b0578063b1c5f427146107e4578063ba13a5721461080457600080fd5b806391d148541461071d57806396e973fb1461076e578063a217fddf1461079b57600080fd5b80638456cb59116101745780638456cb59146106b45780638f2a0bb0146106c95780638f61f4f5146106e957600080fd5b8063731c1884146106745780638065657f1461069457600080fd5b80632f2ff15d1161024857806351cff8d9116101fc5780635f0a10e1116101d65780635f0a10e11461060a5780635ff8b7781461063f57806364d623531461065457600080fd5b806351cff8d9146105b2578063584b153e146105d25780635c975abb146105f257600080fd5b806336568abe1161022d57806336568abe146105685780633cc82e09146105885780633f4ba83a1461059d57600080fd5b80632f2ff15d1461052857806331d507501461054857600080fd5b806313bc9f20116102aa578063248a9ca311610284578063248a9ca3146104b257806328d80e10146104e25780632ab0f529146104f757600080fd5b806313bc9f20146103e2578063150b7a02146104025780631cd3f63a1461047757600080fd5b806307bd0265116102db57806307bd0265146103595780630d3cf6fc1461039b578063134008d3146103cf57600080fd5b806301d5062a1461030257806301ffc9a71461032457600080fd5b366102fd57005b600080fd5b34801561030e57600080fd5b5061032261031d3660046124fe565b610a2e565b005b34801561033057600080fd5b5061034461033f366004612575565b610ac3565b60405190151581526020015b60405180910390f35b34801561036557600080fd5b5061038d7fd8aa0f3194971a2a116679f7c2090f6939c8d4e01a2a8d7e41d55e5351469e6381565b604051908152602001610350565b3480156103a757600080fd5b5061038d7f5f58e3a2316349923ce3780f8d587db2d72378aed66a8261c916544fa6846ca581565b6103226103dd3660046125b7565b610b1f565b3480156103ee57600080fd5b506103446103fd366004612625565b610c17565b34801561040e57600080fd5b5061044661041d36600461274a565b7f150b7a0200000000000000000000000000000000000000000000000000000000949350505050565b6040517fffffffff000000000000000000000000000000000000000000000000000000009091168152602001610350565b34801561048357600080fd5b506104976104923660046127b6565b610c3d565b60408051938452602084019290925290820152606001610350565b3480156104be57600080fd5b5061038d6104cd366004612625565b60009081526020819052604090206001015490565b3480156104ee57600080fd5b50610322610dfc565b34801561050357600080fd5b50610344610512366004612625565b6000908152600160208190526040909120541490565b34801561053457600080fd5b506103226105433660046127e2565b610f04565b34801561055457600080fd5b50610344610563366004612625565b610f2e565b34801561057457600080fd5b506103226105833660046127e2565b610f47565b34801561059457600080fd5b50610344610f77565b3480156105a957600080fd5b5061032261100d565b3480156105be57600080fd5b506103226105cd366004612812565b6110a7565b3480156105de57600080fd5b506103446105ed366004612625565b611167565b3480156105fe57600080fd5b5060035460ff16610344565b34801561061657600080fd5b5061062a610625366004612625565b61117d565b60408051928352602083019190915201610350565b34801561064b57600080fd5b506103226111c9565b34801561066057600080fd5b5061032261066f366004612625565b6112b6565b34801561068057600080fd5b5061038d61068f366004612812565b611303565b3480156106a057600080fd5b5061038d6106af3660046125b7565b61150a565b3480156106c057600080fd5b50610322611549565b3480156106d557600080fd5b506103226106e4366004612874565b6115e3565b3480156106f557600080fd5b5061038d7fb09aa5aeb3702cfd50b6b62bc4532604938f21248a27a1d5ca736082b6819cc181565b34801561072957600080fd5b506103446107383660046127e2565b60009182526020828152604080842073ffffffffffffffffffffffffffffffffffffffff93909316845291905290205460ff1690565b34801561077a57600080fd5b5061038d610789366004612812565b60076020526000908152604090205481565b3480156107a757600080fd5b5061038d600081565b3480156107bc57600080fd5b5061038d7ffd643c72710c63c0180259aba6b2d05451e3591a24e58b62239378085726f78381565b3480156107f057600080fd5b5061038d6107ff366004612926565b61170f565b34801561081057600080fd5b506108387f000000000000000000000000000000000000000000000000000000000000000081565b60405173ffffffffffffffffffffffffffffffffffffffff9091168152602001610350565b34801561086957600080fd5b50610446610878366004612a4f565b7fbc197c810000000000000000000000000000000000000000000000000000000095945050505050565b3480156108ae57600080fd5b5060065461038d565b3480156108c357600080fd5b506103226108d2366004612625565b611754565b3480156108e357600080fd5b506103226108f2366004612afd565b6117cc565b34801561090357600080fd5b5061038d610912366004612625565b60009081526001602052604090205490565b34801561093057600080fd5b5061032261093f3660046127e2565b611985565b34801561095057600080fd5b506103226119aa565b610322610967366004612926565b611a97565b34801561097857600080fd5b5061038d7fef86c39f8ba8cdb1315519475a42dbf3ce56fb6403d6e33b8028559236f1d0f581565b3480156109ac57600080fd5b506104466109bb366004612b28565b7ff23a6e610000000000000000000000000000000000000000000000000000000095945050505050565b3480156109f157600080fd5b5060025461038d565b348015610a0657600080fd5b506108387f000000000000000000000000000000000000000000000000000000000000000081565b7fb09aa5aeb3702cfd50b6b62bc4532604938f21248a27a1d5ca736082b6819cc1610a5881611c3e565b6000610a6889898989898961150a565b9050610a748184611c48565b6000817f4cf4410cc57040e44862ef0f45f3dd5a5e02db8eb8add648d4b0e236f1d07dca8b8b8b8b8b8a604051610ab096959493929190612bda565b60405180910390a3505050505050505050565b60007fffffffff0000000000000000000000000000000000000000000000000000000082167f4e2312e0000000000000000000000000000000000000000000000000000000001480610b195750610b1982611c8a565b92915050565b600080527fdae2aa361dfd1ca020a396615627d436107c35eff9fe7738a3512819782d70696020527f5ba6852781629bcdcd4bdaa6de76d786f1c64b16acdac474e55bebc0ea157951547fd8aa0f3194971a2a116679f7c2090f6939c8d4e01a2a8d7e41d55e5351469e639060ff16610b9c57610b9c8133611d21565b6000610bac88888888888861150a565b9050610bb88185611d8f565b610bc488888888611dc6565b6000817fc2617efa69bab66782fa219543714338489c4e9e178271560a91b82c3f612b588a8a8a8a604051610bfc9493929190612c25565b60405180910390a3610c0d81611e40565b5050505050505050565b600081815260016020526040812054600181118015610c365750428111155b9392505050565b60008060006006805490508410610c5357600080fd5b600060068581548110610c6857610c68612c65565b9060005260206000209060030201905080600001549350806001015492507f000000000000000000000000000000000000000000000000000000000000000073ffffffffffffffffffffffffffffffffffffffff16638e539e8c856040518263ffffffff1660e01b8152600401610ce191815260200190565b602060405180830381865afa158015610cfe573d6000803e3d6000fd5b505050506040513d601f19601f82011682018060405250810190610d229190612c94565b6040517f3a46b1a800000000000000000000000000000000000000000000000000000000815273ffffffffffffffffffffffffffffffffffffffff8881166004830152602482018790527f00000000000000000000000000000000000000000000000000000000000000001690633a46b1a890604401602060405180830381865afa158015610db5573d6000803e3d6000fd5b505050506040513d601f19601f82011682018060405250810190610dd99190612c94565b8260010154610de89190612cdc565b610df29190612cf3565b9150509250925092565b610e04611e66565b600080527fdf98f9afd329b9696c81235fc726c86eac7313d74d8b418096fa2f20a7cc3ab46020527f5f28589fadd1f785d71944c8596afe0087254d0b4df62a6cd070042239c501f7547fef86c39f8ba8cdb1315519475a42dbf3ce56fb6403d6e33b8028559236f1d0f59060ff16610e8157610e818133611d21565b7f000000000000000000000000000000000000000000000000000000000000000073ffffffffffffffffffffffffffffffffffffffff166328d80e106040518163ffffffff1660e01b8152600401600060405180830381600087803b158015610ee957600080fd5b505af1158015610efd573d6000803e3d6000fd5b5050505050565b600082815260208190526040902060010154610f1f81611c3e565b610f298383611e78565b505050565b60008181526001602052604081205481905b1192915050565b73ffffffffffffffffffffffffffffffffffffffff81163314610f6957600080fd5b610f738282611f68565b5050565b60007f000000000000000000000000000000000000000000000000000000000000000073ffffffffffffffffffffffffffffffffffffffff16633cc82e096040518163ffffffff1660e01b8152600401602060405180830381865afa158015610fe4573d6000803e3d6000fd5b505050506040513d601f19601f820116820180604052508101906110089190612d2e565b905090565b7f5f58e3a2316349923ce3780f8d587db2d72378aed66a8261c916544fa6846ca561103781611c3e565b61103f61201f565b7f000000000000000000000000000000000000000000000000000000000000000073ffffffffffffffffffffffffffffffffffffffff16633f4ba83a6040518163ffffffff1660e01b8152600401600060405180830381600087803b158015610ee957600080fd5b6110af611e66565b6110b761209c565b6006546110c357600080fd5b60006110ce82611303565b9050600081116110dd57600080fd5b80600560008282546110ef9190612d50565b90915550506006805461110490600190612d63565b8154811061111457611114612c65565b6000918252602080832060039092029091015473ffffffffffffffffffffffffffffffffffffffff8516808452600790925260409092209190915561115990826120b2565b506111646001600455565b50565b6000818152600160208190526040822054610f40565b6006546000908190831061119057600080fd5b6000600684815481106111a5576111a5612c65565b90600052602060002090600302019050806000015481600101549250925050915091565b6111d1611e66565b600080527fdf98f9afd329b9696c81235fc726c86eac7313d74d8b418096fa2f20a7cc3ab46020527f5f28589fadd1f785d71944c8596afe0087254d0b4df62a6cd070042239c501f7547fef86c39f8ba8cdb1315519475a42dbf3ce56fb6403d6e33b8028559236f1d0f59060ff1661124e5761124e8133611d21565b7f000000000000000000000000000000000000000000000000000000000000000073ffffffffffffffffffffffffffffffffffffffff16635ff8b7786040518163ffffffff1660e01b8152600401600060405180830381600087803b158015610ee957600080fd5b3330146112c257600080fd5b60025460408051918252602082018390527f11c24f4ead16507c69ac467fbd5e4eed5fb5c699626d2cc6d66421df253886d5910160405180910390a1600255565b60008061130f8361212c565b90505b6006548110156115045760006006828154811061133157611331612c65565b60009182526020909120600390910201546040517f8e539e8c0000000000000000000000000000000000000000000000000000000081526004810182905290915073ffffffffffffffffffffffffffffffffffffffff7f00000000000000000000000000000000000000000000000000000000000000001690638e539e8c90602401602060405180830381865afa1580156113d0573d6000803e3d6000fd5b505050506040513d601f19601f820116820180604052508101906113f49190612c94565b6040517f3a46b1a800000000000000000000000000000000000000000000000000000000815273ffffffffffffffffffffffffffffffffffffffff8681166004830152602482018490527f00000000000000000000000000000000000000000000000000000000000000001690633a46b1a890604401602060405180830381865afa158015611487573d6000803e3d6000fd5b505050506040513d601f19601f820116820180604052508101906114ab9190612c94565b600684815481106114be576114be612c65565b9060005260206000209060030201600101546114da9190612cdc565b6114e49190612cf3565b6114ee9084612d50565b92505080806114fc90612d76565b915050611312565b50919050565b600086868686868660405160200161152796959493929190612bda565b6040516020818303038152906040528051906020012090509695505050505050565b7f5f58e3a2316349923ce3780f8d587db2d72378aed66a8261c916544fa6846ca561157381611c3e565b61157b6121dc565b7f000000000000000000000000000000000000000000000000000000000000000073ffffffffffffffffffffffffffffffffffffffff16638456cb596040518163ffffffff1660e01b8152600401600060405180830381600087803b158015610ee957600080fd5b7fb09aa5aeb3702cfd50b6b62bc4532604938f21248a27a1d5ca736082b6819cc161160d81611c3e565b88871461161957600080fd5b88851461162557600080fd5b60006116378b8b8b8b8b8b8b8b61170f565b90506116438184611c48565b60005b8a8110156117015780827f4cf4410cc57040e44862ef0f45f3dd5a5e02db8eb8add648d4b0e236f1d07dca8e8e8581811061168357611683612c65565b90506020020160208101906116989190612812565b8d8d868181106116aa576116aa612c65565b905060200201358c8c878181106116c3576116c3612c65565b90506020028101906116d59190612dae565b8c8b6040516116e996959493929190612bda565b60405180910390a36116fa81612d76565b9050611646565b505050505050505050505050565b60008888888888888888604051602001611730989796959493929190612ec3565b60405160208183030381529060405280519060200120905098975050505050505050565b7ffd643c72710c63c0180259aba6b2d05451e3591a24e58b62239378085726f78361177e81611c3e565b61178782611167565b61179057600080fd5b6000828152600160205260408082208290555183917fbaa1eb22f2a492ba1a5fea61b8df4d27c6c8b5f3971e63bb58fa14ff72eedb7091a25050565b6117d4611e66565b6117dc61209c565b600080527fdf98f9afd329b9696c81235fc726c86eac7313d74d8b418096fa2f20a7cc3ab46020527f5f28589fadd1f785d71944c8596afe0087254d0b4df62a6cd070042239c501f7547fef86c39f8ba8cdb1315519475a42dbf3ce56fb6403d6e33b8028559236f1d0f59060ff16611859576118598133611d21565b6040517fd3dc82d500000000000000000000000000000000000000000000000000000000815267ffffffffffffffff84166004820152602481018390527f000000000000000000000000000000000000000000000000000000000000000073ffffffffffffffffffffffffffffffffffffffff169063d3dc82d590604401600060405180830381600087803b1580156118f157600080fd5b505af1158015611905573d6000803e3d6000fd5b505050506000600554476119199190612d63565b905060066040518060600160405280438152602001611936612237565b6119409085612d63565b81526020908101939093528154600180820184556000938452928490208251600390920201908155928101518383015560400151600290920191909155600455505050565b6000828152602081905260409020600101546119a081611c3e565b610f298383611f68565b6119b2611e66565b600080527fdf98f9afd329b9696c81235fc726c86eac7313d74d8b418096fa2f20a7cc3ab46020527f5f28589fadd1f785d71944c8596afe0087254d0b4df62a6cd070042239c501f7547fef86c39f8ba8cdb1315519475a42dbf3ce56fb6403d6e33b8028559236f1d0f59060ff16611a2f57611a2f8133611d21565b7f000000000000000000000000000000000000000000000000000000000000000073ffffffffffffffffffffffffffffffffffffffff1663e278fe6f6040518163ffffffff1660e01b8152600401600060405180830381600087803b158015610ee957600080fd5b600080527fdae2aa361dfd1ca020a396615627d436107c35eff9fe7738a3512819782d70696020527f5ba6852781629bcdcd4bdaa6de76d786f1c64b16acdac474e55bebc0ea157951547fd8aa0f3194971a2a116679f7c2090f6939c8d4e01a2a8d7e41d55e5351469e639060ff16611b1457611b148133611d21565b878614611b2057600080fd5b878414611b2c57600080fd5b6000611b3e8a8a8a8a8a8a8a8a61170f565b9050611b4a8185611d8f565b60005b89811015611c285760008b8b83818110611b6957611b69612c65565b9050602002016020810190611b7e9190612812565b905060008a8a84818110611b9457611b94612c65565b9050602002013590503660008a8a86818110611bb257611bb2612c65565b9050602002810190611bc49190612dae565b91509150611bd484848484611dc6565b84867fc2617efa69bab66782fa219543714338489c4e9e178271560a91b82c3f612b5886868686604051611c0b9493929190612c25565b60405180910390a35050505080611c2190612d76565b9050611b4d565b50611c3281611e40565b50505050505050505050565b6111648133611d21565b611c5182610f2e565b15611c5b57600080fd5b600254811015611c6a57600080fd5b611c748142612d50565b6000928352600160205260409092209190915550565b60007fffffffff0000000000000000000000000000000000000000000000000000000082167f7965db0b000000000000000000000000000000000000000000000000000000001480610b1957507f01ffc9a7000000000000000000000000000000000000000000000000000000007fffffffff00000000000000000000000000000000000000000000000000000000831614610b19565b60008281526020818152604080832073ffffffffffffffffffffffffffffffffffffffff8516845290915290205460ff16610f7357611d5f8161227f565b611d6a83602061229e565b604051602001611d7b929190612fbc565b604051602081830303815290604052600080fd5b611d9882610c17565b611da157600080fd5b801580611dbd5750600081815260016020819052604090912054145b610f7357600080fd5b60008473ffffffffffffffffffffffffffffffffffffffff16848484604051611df0929190613027565b60006040518083038185875af1925050503d8060008114611e2d576040519150601f19603f3d011682016040523d82523d6000602084013e611e32565b606091505b5050905080610efd57600080fd5b611e4981610c17565b611e5257600080fd5b600090815260016020819052604090912055565b60035460ff1615611e7657600080fd5b565b60008281526020818152604080832073ffffffffffffffffffffffffffffffffffffffff8516845290915290205460ff16610f735760008281526020818152604080832073ffffffffffffffffffffffffffffffffffffffff85168452909152902080547fffffffffffffffffffffffffffffffffffffffffffffffffffffffffffffff00166001179055611f0a3390565b73ffffffffffffffffffffffffffffffffffffffff168173ffffffffffffffffffffffffffffffffffffffff16837f2f8788117e7eff1d82e926ec794901d17c78024a50270940304540a733656f0d60405160405180910390a45050565b60008281526020818152604080832073ffffffffffffffffffffffffffffffffffffffff8516845290915290205460ff1615610f735760008281526020818152604080832073ffffffffffffffffffffffffffffffffffffffff8516808552925280832080547fffffffffffffffffffffffffffffffffffffffffffffffffffffffffffffff0016905551339285917ff6391f5c32d9c69d2a47ea670b442974b53935d1edc7fd64eb21e047a839171b9190a45050565b612027612484565b600380547fffffffffffffffffffffffffffffffffffffffffffffffffffffffffffffff001690557f5db9ee0a495bf2e6ff9c91a7834c1ba4fdd244a5e8aa4e537bd38aeae4b073aa335b60405173ffffffffffffffffffffffffffffffffffffffff909116815260200160405180910390a1565b6002600454036120ab57600080fd5b6002600455565b804710156120bf57600080fd5b60008273ffffffffffffffffffffffffffffffffffffffff168260405160006040518083038185875af1925050503d8060008114612119576040519150601f19603f3d011682016040523d82523d6000602084013e61211e565b606091505b5050905080610f2957600080fd5b73ffffffffffffffffffffffffffffffffffffffff8116600090815260076020526040812054819061215f906001612d50565b6006549091506000905b818111156121d4576000600161217f8484612d63565b61218a911c84612d50565b90506006818154811061219f5761219f612c65565b9060005260206000209060030201600001548411156121ca576121c3816001612d50565b92506121ce565b8091505b50612169565b509392505050565b6121e4611e66565b600380547fffffffffffffffffffffffffffffffffffffffffffffffffffffffffffffff001660011790557f62e78cea01bee320cd4e420270b5ea74000d11b0c9f74754ebdbfc544b05a2586120723390565b60065460009015612279576006805461225290600190612d63565b8154811061226257612262612c65565b906000526020600020906003020160020154905090565b50600090565b6060610b1973ffffffffffffffffffffffffffffffffffffffff831660145b606060006122ad836002612cdc565b6122b8906002612d50565b67ffffffffffffffff8111156122d0576122d061263e565b6040519080825280601f01601f1916602001820160405280156122fa576020820181803683370190505b5090507f30000000000000000000000000000000000000000000000000000000000000008160008151811061233157612331612c65565b60200101907effffffffffffffffffffffffffffffffffffffffffffffffffffffffffffff1916908160001a9053507f78000000000000000000000000000000000000000000000000000000000000008160018151811061239457612394612c65565b60200101907effffffffffffffffffffffffffffffffffffffffffffffffffffffffffffff1916908160001a90535060006123d0846002612cdc565b6123db906001612d50565b90505b6001811115612478577f303132333435363738396162636465660000000000000000000000000000000085600f166010811061241c5761241c612c65565b1a60f81b82828151811061243257612432612c65565b60200101907effffffffffffffffffffffffffffffffffffffffffffffffffffffffffffff1916908160001a90535060049490941c9361247181613037565b90506123de565b508315610c3657600080fd5b60035460ff16611e7657600080fd5b73ffffffffffffffffffffffffffffffffffffffff8116811461116457600080fd5b60008083601f8401126124c757600080fd5b50813567ffffffffffffffff8111156124df57600080fd5b6020830191508360208285010111156124f757600080fd5b9250929050565b600080600080600080600060c0888a03121561251957600080fd5b873561252481612493565b965060208801359550604088013567ffffffffffffffff81111561254757600080fd5b6125538a828b016124b5565b989b979a50986060810135976080820135975060a09091013595509350505050565b60006020828403121561258757600080fd5b81357fffffffff0000000000000000000000000000000000000000000000000000000081168114610c3657600080fd5b60008060008060008060a087890312156125d057600080fd5b86356125db81612493565b955060208701359450604087013567ffffffffffffffff8111156125fe57600080fd5b61260a89828a016124b5565b979a9699509760608101359660809091013595509350505050565b60006020828403121561263757600080fd5b5035919050565b7f4e487b7100000000000000000000000000000000000000000000000000000000600052604160045260246000fd5b604051601f82017fffffffffffffffffffffffffffffffffffffffffffffffffffffffffffffffe016810167ffffffffffffffff811182821017156126b4576126b461263e565b604052919050565b600082601f8301126126cd57600080fd5b813567ffffffffffffffff8111156126e7576126e761263e565b61271860207fffffffffffffffffffffffffffffffffffffffffffffffffffffffffffffffe0601f8401160161266d565b81815284602083860101111561272d57600080fd5b816020850160208301376000918101602001919091529392505050565b6000806000806080858703121561276057600080fd5b843561276b81612493565b9350602085013561277b81612493565b925060408501359150606085013567ffffffffffffffff81111561279e57600080fd5b6127aa878288016126bc565b91505092959194509250565b600080604083850312156127c957600080fd5b82356127d481612493565b946020939093013593505050565b600080604083850312156127f557600080fd5b82359150602083013561280781612493565b809150509250929050565b60006020828403121561282457600080fd5b8135610c3681612493565b60008083601f84011261284157600080fd5b50813567ffffffffffffffff81111561285957600080fd5b6020830191508360208260051b85010111156124f757600080fd5b600080600080600080600080600060c08a8c03121561289257600080fd5b893567ffffffffffffffff808211156128aa57600080fd5b6128b68d838e0161282f565b909b50995060208c01359150808211156128cf57600080fd5b6128db8d838e0161282f565b909950975060408c01359150808211156128f457600080fd5b506129018c828d0161282f565b9a9d999c50979a969997986060880135976080810135975060a0013595509350505050565b60008060008060008060008060a0898b03121561294257600080fd5b883567ffffffffffffffff8082111561295a57600080fd5b6129668c838d0161282f565b909a50985060208b013591508082111561297f57600080fd5b61298b8c838d0161282f565b909850965060408b01359150808211156129a457600080fd5b506129b18b828c0161282f565b999c989b509699959896976060870135966080013595509350505050565b600082601f8301126129e057600080fd5b8135602067ffffffffffffffff8211156129fc576129fc61263e565b8160051b612a0b82820161266d565b9283528481018201928281019087851115612a2557600080fd5b83870192505b84831015612a4457823582529183019190830190612a2b565b979650505050505050565b600080600080600060a08688031215612a6757600080fd5b8535612a7281612493565b94506020860135612a8281612493565b9350604086013567ffffffffffffffff80821115612a9f57600080fd5b612aab89838a016129cf565b94506060880135915080821115612ac157600080fd5b612acd89838a016129cf565b93506080880135915080821115612ae357600080fd5b50612af0888289016126bc565b9150509295509295909350565b60008060408385031215612b1057600080fd5b823567ffffffffffffffff811681146127d457600080fd5b600080600080600060a08688031215612b4057600080fd5b8535612b4b81612493565b94506020860135612b5b81612493565b93506040860135925060608601359150608086013567ffffffffffffffff811115612b8557600080fd5b612af0888289016126bc565b8183528181602085013750600060208284010152600060207fffffffffffffffffffffffffffffffffffffffffffffffffffffffffffffffe0601f840116840101905092915050565b73ffffffffffffffffffffffffffffffffffffffff8716815285602082015260a060408201526000612c1060a083018688612b91565b60608301949094525060800152949350505050565b73ffffffffffffffffffffffffffffffffffffffff85168152836020820152606060408201526000612c5b606083018486612b91565b9695505050505050565b7f4e487b7100000000000000000000000000000000000000000000000000000000600052603260045260246000fd5b600060208284031215612ca657600080fd5b5051919050565b7f4e487b7100000000000000000000000000000000000000000000000000000000600052601160045260246000fd5b8082028115828204841417610b1957610b19612cad565b600082612d29577f4e487b7100000000000000000000000000000000000000000000000000000000600052601260045260246000fd5b500490565b600060208284031215612d4057600080fd5b81518015158114610c3657600080fd5b80820180821115610b1957610b19612cad565b81810381811115610b1957610b19612cad565b60007fffffffffffffffffffffffffffffffffffffffffffffffffffffffffffffffff8203612da757612da7612cad565b5060010190565b60008083357fffffffffffffffffffffffffffffffffffffffffffffffffffffffffffffffe1843603018112612de357600080fd5b83018035915067ffffffffffffffff821115612dfe57600080fd5b6020019150368190038213156124f757600080fd5b81835260006020808501808196508560051b810191508460005b87811015612eb657828403895281357fffffffffffffffffffffffffffffffffffffffffffffffffffffffffffffffe1883603018112612e6c57600080fd5b8701858101903567ffffffffffffffff811115612e8857600080fd5b803603821315612e9757600080fd5b612ea2868284612b91565b9a87019a9550505090840190600101612e2d565b5091979650505050505050565b60a0808252810188905260008960c08301825b8b811015612f13578235612ee981612493565b73ffffffffffffffffffffffffffffffffffffffff16825260209283019290910190600101612ed6565b5083810360208501528881527f07ffffffffffffffffffffffffffffffffffffffffffffffffffffffffffffff891115612f4c57600080fd5b8860051b9150818a60208301370182810360209081016040850152612f749082018789612e13565b60608401959095525050608001529695505050505050565b6000815160005b81811015612fad5760208185018101518683015201612f93565b50600093019283525090919050565b7f416363657373436f6e74726f6c3a206163636f756e742000000000000000000081526000612fee6017830185612f8c565b7f206973206d697373696e6720726f6c6520000000000000000000000000000000815261301e6011820185612f8c565b95945050505050565b8183823760009101908152919050565b60008161304657613046612cad565b507fffffffffffffffffffffffffffffffffffffffffffffffffffffffffffffffff019056fea2646970667358221220a5747a00c1d68e114f866ee038fa90350920cdd4c2bcce93658aae75718795f964736f6c634300081100335f58e3a2316349923ce3780f8d587db2d72378aed66a8261c916544fa6846ca5ef86c39f8ba8cdb1315519475a42dbf3ce56fb6403d6e33b8028559236f1d0f5b09aa5aeb3702cfd50b6b62bc4532604938f21248a27a1d5ca736082b6819cc1d8aa0f3194971a2a116679f7c2090f6939c8d4e01a2a8d7e41d55e5351469e63fd643c72710c63c0180259aba6b2d05451e3591a24e58b62239378085726f783",
  "linkReferences": {},
  "deployedLinkReferences": {}
}