{
  "_format": "hh-sol-artifact-1",
  "contractName": "LotteryICO",
  "sourceName": "contracts/ICO.sol",
  "abi": [
    {
      "inputs": [
        {
          "internalType": "contract LotteryToken",
          "name": "_token",
          "type": "address"
        },
        {
          "internalType": "contract Lottery",
          "name": "_lottery",
          "type": "address"
        },
        {
          "internalType": "contract LotteryController",
          "name": "_controller",
          "type": "address"
        },
        {
          "internalType": "uint256",
          "name": "initialPrice",
          "type": "uint256"
        }
      ],
      "stateMutability": "nonpayable",
      "type": "constructor"
    },
    {
      "anonymous": false,
      "inputs": [
        {
          "indexed": true,
          "internalType": "address",
          "name": "previousOwner",
          "type": "address"
        },
        {
          "indexed": true,
          "internalType": "address",
          "name": "newOwner",
          "type": "address"
        }
      ],
      "name": "OwnershipTransferred",
      "type": "event"
    },
    {
      "anonymous": false,
      "inputs": [
        {
          "indexed": false,
          "internalType": "address",
          "name": "account",
          "type": "address"
        }
      ],
      "name": "Paused",
      "type": "event"
    },
    {
      "anonymous": false,
      "inputs": [
        {
          "indexed": false,
          "internalType": "address",
          "name": "account",
          "type": "address"
        }
      ],
      "name": "Unpaused",
      "type": "event"
    },
    {
      "inputs": [
        {
          "internalType": "address",
          "name": "",
          "type": "address"
        }
      ],
      "name": "balance",
      "outputs": [
        {
          "internalType": "uint256",
          "name": "",
          "type": "uint256"
        }
      ],
      "stateMutability": "view",
      "type": "function"
    },
    {
      "inputs": [],
      "name": "buy",
      "outputs": [],
      "stateMutability": "payable",
      "type": "function"
    },
    {
      "inputs": [],
      "name": "claim",
      "outputs": [],
      "stateMutability": "nonpayable",
      "type": "function"
    },
    {
      "inputs": [],
      "name": "close",
      "outputs": [],
      "stateMutability": "nonpayable",
      "type": "function"
    },
    {
      "inputs": [],
      "name": "controller",
      "outputs": [
        {
          "internalType": "contract LotteryController",
          "name": "",
          "type": "address"
        }
      ],
      "stateMutability": "view",
      "type": "function"
    },
    {
      "inputs": [
        {
          "internalType": "uint256",
          "name": "etherAmount",
          "type": "uint256"
        }
      ],
      "name": "convertEtherToToken",
      "outputs": [
        {
          "internalType": "uint256",
          "name": "",
          "type": "uint256"
        }
      ],
      "stateMutability": "view",
      "type": "function"
    },
    {
      "inputs": [],
      "name": "developerShare",
      "outputs": [
        {
          "internalType": "uint16",
          "name": "",
          "type": "uint16"
        }
      ],
      "stateMutability": "view",
      "type": "function"
    },
    {
      "inputs": [
        {
          "internalType": "address",
          "name": "developer",
          "type": "address"
        }
      ],
      "name": "getDeveloperShare",
      "outputs": [
        {
          "internalType": "uint256",
          "name": "",
          "type": "uint256"
        }
      ],
      "stateMutability": "view",
      "type": "function"
    },
    {
      "inputs": [],
      "name": "getDevelopers",
      "outputs": [
        {
          "internalType": "address[]",
          "name": "",
          "type": "address[]"
        }
      ],
      "stateMutability": "view",
      "type": "function"
    },
    {
      "inputs": [],
      "name": "isOpen",
      "outputs": [
        {
          "internalType": "bool",
          "name": "",
          "type": "bool"
        }
      ],
      "stateMutability": "view",
      "type": "function"
    },
    {
      "inputs": [],
      "name": "lottery",
      "outputs": [
        {
          "internalType": "contract Lottery",
          "name": "",
          "type": "address"
        }
      ],
      "stateMutability": "view",
      "type": "function"
    },
    {
      "inputs": [
        {
          "internalType": "uint256",
          "name": "newPrice",
          "type": "uint256"
        },
        {
          "internalType": "uint16",
          "name": "newDeveloperShare",
          "type": "uint16"
        }
      ],
      "name": "open",
      "outputs": [],
      "stateMutability": "nonpayable",
      "type": "function"
    },
    {
      "inputs": [],
      "name": "owner",
      "outputs": [
        {
          "internalType": "address",
          "name": "",
          "type": "address"
        }
      ],
      "stateMutability": "view",
      "type": "function"
    },
    {
      "inputs": [],
      "name": "paused",
      "outputs": [
        {
          "internalType": "bool",
          "name": "",
          "type": "bool"
        }
      ],
      "stateMutability": "view",
      "type": "function"
    },
    {
      "inputs": [],
      "name": "price",
      "outputs": [
        {
          "internalType": "uint256",
          "name": "",
          "type": "uint256"
        }
      ],
      "stateMutability": "view",
      "type": "function"
    },
    {
      "inputs": [
        {
          "internalType": "address",
          "name": "developer",
          "type": "address"
        }
      ],
      "name": "removeDeveloper",
      "outputs": [
        {
          "internalType": "bool",
          "name": "",
          "type": "bool"
        }
      ],
      "stateMutability": "nonpayable",
      "type": "function"
    },
    {
      "inputs": [],
      "name": "renounceOwnership",
      "outputs": [],
      "stateMutability": "nonpayable",
      "type": "function"
    },
    {
      "inputs": [],
      "name": "sendRevenueBackToLottery",
      "outputs": [],
      "stateMutability": "nonpayable",
      "type": "function"
    },
    {
      "inputs": [
        {
          "internalType": "address",
          "name": "developer",
          "type": "address"
        },
        {
          "internalType": "uint256",
          "name": "share",
          "type": "uint256"
        }
      ],
      "name": "setDeveloperShare",
      "outputs": [
        {
          "internalType": "bool",
          "name": "",
          "type": "bool"
        }
      ],
      "stateMutability": "nonpayable",
      "type": "function"
    },
    {
      "inputs": [],
      "name": "token",
      "outputs": [
        {
          "internalType": "contract LotteryToken",
          "name": "",
          "type": "address"
        }
      ],
      "stateMutability": "view",
      "type": "function"
    },
    {
      "inputs": [],
      "name": "tokensForSale",
      "outputs": [
        {
          "internalType": "uint256",
          "name": "",
          "type": "uint256"
        }
      ],
      "stateMutability": "view",
      "type": "function"
    },
    {
      "inputs": [
        {
          "internalType": "address",
          "name": "newOwner",
          "type": "address"
        }
      ],
      "name": "transferOwnership",
      "outputs": [],
      "stateMutability": "nonpayable",
      "type": "function"
    }
  ],
  "bytecode": "0x60e06040526007805462ffffff191690553480156200001d57600080fd5b5060405162001642380380620016428339810160408190526200004091620000e5565b6200004b336200007c565b600180556002805460ff191690556001600160a01b0393841660805291831660a05290911660c0526006556200013f565b600080546001600160a01b038381166001600160a01b0319831681178455604051919092169283917f8be0079c531659141344cd1fd0a4f28419497f9722a3daafe3b4186f6b6457e09190a35050565b6001600160a01b0381168114620000e257600080fd5b50565b60008060008060808587031215620000fc57600080fd5b84516200010981620000cc565b60208601519094506200011c81620000cc565b60408601519093506200012f81620000cc565b6060959095015193969295505050565b60805160a05160c05161149b620001a76000396000818161042701528181610bd50152610c8b015260008181610351015281816106b50152610d1601526000818161045b01528181610481015281816107860152818161087c01526109af015261149b6000f3fe6080604052600436106101755760003560e01c8063a6f2ae3a116100cb578063d72be1171161007f578063f2fde38b11610059578063f2fde38b146103f5578063f77c479114610415578063fc0c546a1461044957600080fd5b8063d72be11714610393578063e3d670d7146103b3578063eeaf66e7146103e057600080fd5b8063b18849a8116100b0578063b18849a81461031f578063ba13a5721461033f578063d0a42afa1461037357600080fd5b8063a6f2ae3a146102f5578063b0f2ccc5146102fd57600080fd5b80635c975abb1161012d5780638da5cb5b116101075780638da5cb5b146102735780639e23c209146102bf578063a035b1fe146102df57600080fd5b80635c975abb14610226578063715018a61461023e57806386da50691461025357600080fd5b806343d726d61161015e57806343d726d6146101d057806347535d7b146101e75780634e71d92d1461021157600080fd5b806312aef8c31461017a5780632a78183f146101a2575b600080fd5b34801561018657600080fd5b5061018f61047d565b6040519081526020015b60405180910390f35b3480156101ae57600080fd5b506007546101bd9061ffff1681565b60405161ffff9091168152602001610199565b3480156101dc57600080fd5b506101e5610572565b005b3480156101f357600080fd5b5060075462010000900460ff165b6040519015158152602001610199565b34801561021d57600080fd5b506101e56106e8565b34801561023257600080fd5b5060025460ff16610201565b34801561024a57600080fd5b506101e56107f4565b34801561025f57600080fd5b5061018f61026e3660046111ab565b610806565b34801561027f57600080fd5b5060005473ffffffffffffffffffffffffffffffffffffffff165b60405173ffffffffffffffffffffffffffffffffffffffff9091168152602001610199565b3480156102cb57600080fd5b506102016102da3660046111e8565b610843565b3480156102eb57600080fd5b5061018f60065481565b6101e561085d565b34801561030957600080fd5b50610312610a51565b6040516101999190611203565b34801561032b57600080fd5b5061018f61033a3660046111e8565b610b23565b34801561034b57600080fd5b5061029a7f000000000000000000000000000000000000000000000000000000000000000081565b34801561037f57600080fd5b506101e561038e36600461125d565b610b30565b34801561039f57600080fd5b506102016103ae366004611294565b610b77565b3480156103bf57600080fd5b5061018f6103ce3660046111e8565b60086020526000908152604090205481565b3480156103ec57600080fd5b506101e5610b94565b34801561040157600080fd5b506101e56104103660046111e8565b610d48565b34801561042157600080fd5b5061029a7f000000000000000000000000000000000000000000000000000000000000000081565b34801561045557600080fd5b5061029a7f000000000000000000000000000000000000000000000000000000000000000081565b60007f000000000000000000000000000000000000000000000000000000000000000073ffffffffffffffffffffffffffffffffffffffff1663dd62ed3e6104da60005473ffffffffffffffffffffffffffffffffffffffff1690565b6040517fffffffff0000000000000000000000000000000000000000000000000000000060e084901b16815273ffffffffffffffffffffffffffffffffffffffff9091166004820152306024820152604401602060405180830381865afa158015610549573d6000803e3d6000fd5b505050506040513d601f19601f8201168201806040525081019061056d91906112be565b905090565b61057a610d7c565b610582610da0565b60075462010000900460ff1661059757600080fd5b600780547fffffffffffffffffffffffffffffffffffffffffffffffffffffffffff00ffff16905560006105cb6003610db6565b90506000805b8281101561060a5760006105e6600383610dc1565b91506105f490508184611306565b925050808061060290611319565b9150506105d1565b50801561069b574760005b838110156106985760008061062b600384610dc1565b909250905061068361063f86612710611351565b60075483906106529061ffff1688611351565b61065c9190611351565b6106669190611368565b73ffffffffffffffffffffffffffffffffffffffff841690610ddd565b5050808061069090611319565b915050610615565b50505b6106db73ffffffffffffffffffffffffffffffffffffffff7f00000000000000000000000000000000000000000000000000000000000000001647610ddd565b50506106e660018055565b565b6106f0610da0565b6106f8610e5c565b60075462010000900460ff161561070e57600080fd5b336000908152600860205260409020548061072857600080fd5b3360008181526008602052604080822091909155517fa9059cbb00000000000000000000000000000000000000000000000000000000815260048101919091526024810182905273ffffffffffffffffffffffffffffffffffffffff7f0000000000000000000000000000000000000000000000000000000000000000169063a9059cbb906044015b6020604051808303816000875af11580156107d0573d6000803e3d6000fd5b505050506040513d601f19601f820116820180604052508101906106db91906113a3565b6107fc610d7c565b6106e66000610e6c565b60075460009062010000900460ff1661081e57600080fd5b60065461083383670de0b6b3a7640000611351565b61083d9190611368565b92915050565b600061084d610d7c565b61083d600383610ee1565b919050565b610865610e5c565b61086d610da0565b600061087834610806565b90507f000000000000000000000000000000000000000000000000000000000000000073ffffffffffffffffffffffffffffffffffffffff1663dd62ed3e6108d560005473ffffffffffffffffffffffffffffffffffffffff1690565b6040517fffffffff0000000000000000000000000000000000000000000000000000000060e084901b16815273ffffffffffffffffffffffffffffffffffffffff9091166004820152306024820152604401602060405180830381865afa158015610944573d6000803e3d6000fd5b505050506040513d601f19601f8201168201806040525081019061096891906112be565b81111561097457600080fd5b3360009081526008602052604081208054839290610993908490611306565b909155505073ffffffffffffffffffffffffffffffffffffffff7f0000000000000000000000000000000000000000000000000000000000000000166323b872dd6109f360005473ffffffffffffffffffffffffffffffffffffffff1690565b6040517fffffffff0000000000000000000000000000000000000000000000000000000060e084901b16815273ffffffffffffffffffffffffffffffffffffffff9091166004820152306024820152604481018490526064016107b1565b60606000610a5f6003610db6565b905060008167ffffffffffffffff811115610a7c57610a7c6113c5565b604051908082528060200260200182016040528015610aa5578160200160208202803683370190505b50905060005b82811015610b1c57610abe600382610dc1565b50828281518110610ad157610ad16113f4565b602002602001018173ffffffffffffffffffffffffffffffffffffffff1673ffffffffffffffffffffffffffffffffffffffff16815250508080610b1490611319565b915050610aab565b5092915050565b600061083d600383610f03565b610b38610d7c565b600691909155600780547fffffffffffffffffffffffffffffffffffffffffffffffffffffffffff0000001661ffff9092169190911762010000179055565b6000610b81610d7c565b610b8d60038484610f25565b9392505050565b610b9c610d7c565b610ba4610da0565b6040517f731c18840000000000000000000000000000000000000000000000000000000081523060048201526000907f000000000000000000000000000000000000000000000000000000000000000073ffffffffffffffffffffffffffffffffffffffff169063731c188490602401602060405180830381865afa158015610c31573d6000803e3d6000fd5b505050506040513d601f19601f82011682018060405250810190610c5591906112be565b90508015610d3e576040517f51cff8d90000000000000000000000000000000000000000000000000000000081523060048201527f000000000000000000000000000000000000000000000000000000000000000073ffffffffffffffffffffffffffffffffffffffff16906351cff8d990602401600060405180830381600087803b158015610ce457600080fd5b505af1158015610cf8573d6000803e3d6000fd5b50610d3e92505073ffffffffffffffffffffffffffffffffffffffff7f000000000000000000000000000000000000000000000000000000000000000016905082610ddd565b506106e660018055565b610d50610d7c565b73ffffffffffffffffffffffffffffffffffffffff8116610d7057600080fd5b610d7981610e6c565b50565b60005473ffffffffffffffffffffffffffffffffffffffff1633146106e657600080fd5b600260015403610daf57600080fd5b6002600155565b600061083d82610f50565b6000808080610dd08686610f5b565b9097909650945050505050565b80471015610dea57600080fd5b60008273ffffffffffffffffffffffffffffffffffffffff168260405160006040518083038185875af1925050503d8060008114610e44576040519150601f19603f3d011682016040523d82523d6000602084013e610e49565b606091505b5050905080610e5757600080fd5b505050565b60025460ff16156106e657600080fd5b6000805473ffffffffffffffffffffffffffffffffffffffff8381167fffffffffffffffffffffffff0000000000000000000000000000000000000000831681178455604051919092169283917f8be0079c531659141344cd1fd0a4f28419497f9722a3daafe3b4186f6b6457e09190a35050565b6000610b8d8373ffffffffffffffffffffffffffffffffffffffff8416610f86565b6000610b8d8373ffffffffffffffffffffffffffffffffffffffff8416610fa3565b6000610f488473ffffffffffffffffffffffffffffffffffffffff851684610fd0565b949350505050565b600061083d82610fed565b60008080610f698585610ff7565b600081815260029690960160205260409095205494959350505050565b60008181526002830160205260408120819055610b8d8383611003565b600081815260028301602052604081205480151580610fc75750610fc7848461100f565b610b8d57600080fd5b60008281526002840160205260408120829055610f48848461101b565b600061083d825490565b6000610b8d8383611027565b6000610b8d8383611051565b6000610b8d8383611144565b6000610b8d838361115c565b600082600001828154811061103e5761103e6113f4565b9060005260206000200154905092915050565b6000818152600183016020526040812054801561113a576000611075600183611423565b855490915060009061108990600190611423565b90508181146110ee5760008660000182815481106110a9576110a96113f4565b90600052602060002001549050808760000184815481106110cc576110cc6113f4565b6000918252602080832090910192909255918252600188019052604090208390555b85548690806110ff576110ff611436565b60019003818190600052602060002001600090559055856001016000868152602001908152602001600020600090556001935050505061083d565b600091505061083d565b60008181526001830160205260408120541515610b8d565b60008181526001830160205260408120546111a35750815460018181018455600084815260208082209093018490558454848252828601909352604090209190915561083d565b50600061083d565b6000602082840312156111bd57600080fd5b5035919050565b803573ffffffffffffffffffffffffffffffffffffffff8116811461085857600080fd5b6000602082840312156111fa57600080fd5b610b8d826111c4565b6020808252825182820181905260009190848201906040850190845b8181101561125157835173ffffffffffffffffffffffffffffffffffffffff168352928401929184019160010161121f565b50909695505050505050565b6000806040838503121561127057600080fd5b82359150602083013561ffff8116811461128957600080fd5b809150509250929050565b600080604083850312156112a757600080fd5b6112b0836111c4565b946020939093013593505050565b6000602082840312156112d057600080fd5b5051919050565b7f4e487b7100000000000000000000000000000000000000000000000000000000600052601160045260246000fd5b8082018082111561083d5761083d6112d7565b60007fffffffffffffffffffffffffffffffffffffffffffffffffffffffffffffffff820361134a5761134a6112d7565b5060010190565b808202811582820484141761083d5761083d6112d7565b60008261139e577f4e487b7100000000000000000000000000000000000000000000000000000000600052601260045260246000fd5b500490565b6000602082840312156113b557600080fd5b81518015158114610b8d57600080fd5b7f4e487b7100000000000000000000000000000000000000000000000000000000600052604160045260246000fd5b7f4e487b7100000000000000000000000000000000000000000000000000000000600052603260045260246000fd5b8181038181111561083d5761083d6112d7565b7f4e487b7100000000000000000000000000000000000000000000000000000000600052603160045260246000fdfea26469706673582212202e2216ca40dfab1966a5f58a74d7bfe16a6a79a2bc3a00d18e740023de0a386564736f6c63430008110033",
  "linkReferences": {},
  "deployedLinkReferences": {}
}