{
  "_format": "hh-sol-artifact-1",
  "contractName": "Lottery",
  "sourceName": "contracts/Lottery.sol",
  "abi": [
    {
      "inputs": [],
      "stateMutability": "nonpayable",
      "type": "constructor"
    },
    {
      "anonymous": false,
      "inputs": [
        {
          "indexed": false,
          "internalType": "address",
          "name": "previousAdmin",
          "type": "address"
        },
        {
          "indexed": false,
          "internalType": "address",
          "name": "newAdmin",
          "type": "address"
        }
      ],
      "name": "AdminChanged",
      "type": "event"
    },
    {
      "anonymous": false,
      "inputs": [
        {
          "indexed": true,
          "internalType": "address",
          "name": "beacon",
          "type": "address"
        }
      ],
      "name": "BeaconUpgraded",
      "type": "event"
    },
    {
      "anonymous": false,
      "inputs": [
        {
          "indexed": true,
          "internalType": "uint256",
          "name": "round",
          "type": "uint256"
        },
        {
          "indexed": false,
          "internalType": "uint256",
          "name": "currentBalance",
          "type": "uint256"
        }
      ],
      "name": "CloseRound",
      "type": "event"
    },
    {
      "anonymous": false,
      "inputs": [
        {
          "indexed": true,
          "internalType": "uint256",
          "name": "round",
          "type": "uint256"
        },
        {
          "indexed": false,
          "internalType": "uint8[6]",
          "name": "numbers",
          "type": "uint8[6]"
        },
        {
          "indexed": false,
          "internalType": "uint256",
          "name": "currentBalance",
          "type": "uint256"
        }
      ],
      "name": "Draw",
      "type": "event"
    },
    {
      "anonymous": false,
      "inputs": [
        {
          "indexed": false,
          "internalType": "uint8",
          "name": "version",
          "type": "uint8"
        }
      ],
      "name": "Initialized",
      "type": "event"
    },
    {
      "anonymous": false,
      "inputs": [
        {
          "indexed": true,
          "internalType": "uint256",
          "name": "round",
          "type": "uint256"
        },
        {
          "indexed": false,
          "internalType": "uint256",
          "name": "price",
          "type": "uint256"
        }
      ],
      "name": "NewTicketPrice",
      "type": "event"
    },
    {
      "anonymous": false,
      "inputs": [
        {
          "indexed": true,
          "internalType": "address",
          "name": "previousOwner",
          "type": "address"
        },
        {
          "indexed": true,
          "internalType": "address",
          "name": "newOwner",
          "type": "address"
        }
      ],
      "name": "OwnershipTransferred",
      "type": "event"
    },
    {
      "anonymous": false,
      "inputs": [
        {
          "indexed": false,
          "internalType": "address",
          "name": "account",
          "type": "address"
        }
      ],
      "name": "Paused",
      "type": "event"
    },
    {
      "anonymous": false,
      "inputs": [
        {
          "indexed": true,
          "internalType": "uint256",
          "name": "round",
          "type": "uint256"
        },
        {
          "indexed": true,
          "internalType": "address",
          "name": "player",
          "type": "address"
        },
        {
          "indexed": false,
          "internalType": "uint8[]",
          "name": "numbers",
          "type": "uint8[]"
        }
      ],
      "name": "Ticket",
      "type": "event"
    },
    {
      "anonymous": false,
      "inputs": [
        {
          "indexed": false,
          "internalType": "address",
          "name": "account",
          "type": "address"
        }
      ],
      "name": "Unpaused",
      "type": "event"
    },
    {
      "anonymous": false,
      "inputs": [
        {
          "indexed": true,
          "internalType": "address",
          "name": "implementation",
          "type": "address"
        }
      ],
      "name": "Upgraded",
      "type": "event"
    },
    {
      "anonymous": false,
      "inputs": [
        {
          "indexed": true,
          "internalType": "uint256",
          "name": "round",
          "type": "uint256"
        },
        {
          "indexed": false,
          "internalType": "uint256",
          "name": "requestId",
          "type": "uint256"
        }
      ],
      "name": "VRFRequest",
      "type": "event"
    },
    {
      "inputs": [],
      "name": "baseTicketPrice",
      "outputs": [
        {
          "internalType": "uint256",
          "name": "",
          "type": "uint256"
        }
      ],
      "stateMutability": "view",
      "type": "function"
    },
    {
      "inputs": [
        {
          "internalType": "bytes32",
          "name": "referralCode",
          "type": "bytes32"
        },
        {
          "internalType": "uint8[]",
          "name": "playerNumbers",
          "type": "uint8[]"
        }
      ],
      "name": "buyTicket",
      "outputs": [],
      "stateMutability": "payable",
      "type": "function"
    },
    {
      "inputs": [],
      "name": "canDraw",
      "outputs": [
        {
          "internalType": "bool",
          "name": "",
          "type": "bool"
        }
      ],
      "stateMutability": "view",
      "type": "function"
    },
    {
      "inputs": [],
      "name": "cancelFailedDrawing",
      "outputs": [],
      "stateMutability": "nonpayable",
      "type": "function"
    },
    {
      "inputs": [
        {
          "internalType": "bytes32",
          "name": "code",
          "type": "bytes32"
        },
        {
          "internalType": "address",
          "name": "partner",
          "type": "address"
        }
      ],
      "name": "claimReferralCode",
      "outputs": [],
      "stateMutability": "nonpayable",
      "type": "function"
    },
    {
      "inputs": [],
      "name": "closeRound",
      "outputs": [],
      "stateMutability": "nonpayable",
      "type": "function"
    },
    {
      "inputs": [],
      "name": "currentRound",
      "outputs": [
        {
          "internalType": "uint64",
          "name": "",
          "type": "uint64"
        }
      ],
      "stateMutability": "view",
      "type": "function"
    },
    {
      "inputs": [
        {
          "internalType": "uint64",
          "name": "vrfSubscriptionId",
          "type": "uint64"
        },
        {
          "internalType": "bytes32",
          "name": "vrfKeyHash",
          "type": "bytes32"
        }
      ],
      "name": "draw",
      "outputs": [],
      "stateMutability": "nonpayable",
      "type": "function"
    },
    {
      "inputs": [
        {
          "internalType": "uint256",
          "name": "",
          "type": "uint256"
        }
      ],
      "name": "draws",
      "outputs": [
        {
          "internalType": "uint256",
          "name": "blockNumber",
          "type": "uint256"
        }
      ],
      "stateMutability": "view",
      "type": "function"
    },
    {
      "inputs": [],
      "name": "findWinners",
      "outputs": [],
      "stateMutability": "nonpayable",
      "type": "function"
    },
    {
      "inputs": [
        {
          "internalType": "uint64",
          "name": "round",
          "type": "uint64"
        }
      ],
      "name": "getDrawData",
      "outputs": [
        {
          "internalType": "uint256",
          "name": "blockNumber",
          "type": "uint256"
        },
        {
          "internalType": "uint8[6]",
          "name": "numbers",
          "type": "uint8[6]"
        },
        {
          "internalType": "uint64[][5]",
          "name": "winners",
          "type": "uint64[][5]"
        }
      ],
      "stateMutability": "view",
      "type": "function"
    },
    {
      "inputs": [
        {
          "internalType": "uint64",
          "name": "ticketId",
          "type": "uint64"
        }
      ],
      "name": "getTicket",
      "outputs": [
        {
          "internalType": "address",
          "name": "player",
          "type": "address"
        },
        {
          "internalType": "uint64",
          "name": "round",
          "type": "uint64"
        },
        {
          "internalType": "uint256",
          "name": "timestamp",
          "type": "uint256"
        },
        {
          "internalType": "uint8[]",
          "name": "numbers",
          "type": "uint8[]"
        }
      ],
      "stateMutability": "view",
      "type": "function"
    },
    {
      "inputs": [
        {
          "internalType": "address",
          "name": "player",
          "type": "address"
        }
      ],
      "name": "getTicketIds",
      "outputs": [
        {
          "internalType": "uint64[]",
          "name": "ids",
          "type": "uint64[]"
        }
      ],
      "stateMutability": "view",
      "type": "function"
    },
    {
      "inputs": [
        {
          "internalType": "address",
          "name": "player",
          "type": "address"
        },
        {
          "internalType": "uint64",
          "name": "round",
          "type": "uint64"
        }
      ],
      "name": "getTicketIdsForRound",
      "outputs": [
        {
          "internalType": "uint64[]",
          "name": "ids",
          "type": "uint64[]"
        }
      ],
      "stateMutability": "view",
      "type": "function"
    },
    {
      "inputs": [
        {
          "internalType": "uint8[]",
          "name": "playerNumbers",
          "type": "uint8[]"
        }
      ],
      "name": "getTicketPrice",
      "outputs": [
        {
          "internalType": "uint256",
          "name": "",
          "type": "uint256"
        }
      ],
      "stateMutability": "view",
      "type": "function"
    },
    {
      "inputs": [
        {
          "internalType": "address",
          "name": "vrfCoordinator",
          "type": "address"
        }
      ],
      "name": "initialize",
      "outputs": [],
      "stateMutability": "nonpayable",
      "type": "function"
    },
    {
      "inputs": [
        {
          "internalType": "address",
          "name": "partner",
          "type": "address"
        }
      ],
      "name": "makeReferralCode",
      "outputs": [
        {
          "internalType": "bytes32",
          "name": "",
          "type": "bytes32"
        }
      ],
      "stateMutability": "nonpayable",
      "type": "function"
    },
    {
      "inputs": [],
      "name": "nextDrawTime",
      "outputs": [
        {
          "internalType": "uint256",
          "name": "",
          "type": "uint256"
        }
      ],
      "stateMutability": "view",
      "type": "function"
    },
    {
      "inputs": [],
      "name": "nextTicketId",
      "outputs": [
        {
          "internalType": "uint64",
          "name": "",
          "type": "uint64"
        }
      ],
      "stateMutability": "view",
      "type": "function"
    },
    {
      "inputs": [],
      "name": "owner",
      "outputs": [
        {
          "internalType": "address",
          "name": "",
          "type": "address"
        }
      ],
      "stateMutability": "view",
      "type": "function"
    },
    {
      "inputs": [
        {
          "internalType": "bytes32",
          "name": "",
          "type": "bytes32"
        }
      ],
      "name": "partnersByReferralCode",
      "outputs": [
        {
          "internalType": "address",
          "name": "",
          "type": "address"
        }
      ],
      "stateMutability": "view",
      "type": "function"
    },
    {
      "inputs": [],
      "name": "pause",
      "outputs": [],
      "stateMutability": "nonpayable",
      "type": "function"
    },
    {
      "inputs": [],
      "name": "paused",
      "outputs": [
        {
          "internalType": "bool",
          "name": "",
          "type": "bool"
        }
      ],
      "stateMutability": "view",
      "type": "function"
    },
    {
      "inputs": [
        {
          "internalType": "address",
          "name": "dest",
          "type": "address"
        }
      ],
      "name": "payments",
      "outputs": [
        {
          "internalType": "uint256",
          "name": "",
          "type": "uint256"
        }
      ],
      "stateMutability": "view",
      "type": "function"
    },
    {
      "inputs": [
        {
          "internalType": "uint256",
          "name": "",
          "type": "uint256"
        }
      ],
      "name": "playersByTicket",
      "outputs": [
        {
          "internalType": "address payable",
          "name": "",
          "type": "address"
        }
      ],
      "stateMutability": "view",
      "type": "function"
    },
    {
      "inputs": [],
      "name": "proxiableUUID",
      "outputs": [
        {
          "internalType": "bytes32",
          "name": "",
          "type": "bytes32"
        }
      ],
      "stateMutability": "view",
      "type": "function"
    },
    {
      "inputs": [
        {
          "internalType": "uint256",
          "name": "",
          "type": "uint256"
        },
        {
          "internalType": "uint256[]",
          "name": "randomWords",
          "type": "uint256[]"
        }
      ],
      "name": "rawFulfillRandomWords",
      "outputs": [],
      "stateMutability": "nonpayable",
      "type": "function"
    },
    {
      "inputs": [
        {
          "internalType": "address",
          "name": "",
          "type": "address"
        },
        {
          "internalType": "uint256",
          "name": "",
          "type": "uint256"
        }
      ],
      "name": "referralCodesByPartner",
      "outputs": [
        {
          "internalType": "bytes32",
          "name": "",
          "type": "bytes32"
        }
      ],
      "stateMutability": "view",
      "type": "function"
    },
    {
      "inputs": [],
      "name": "renounceOwnership",
      "outputs": [],
      "stateMutability": "nonpayable",
      "type": "function"
    },
    {
      "inputs": [],
      "name": "state",
      "outputs": [
        {
          "internalType": "enum Lottery.State",
          "name": "",
          "type": "uint8"
        }
      ],
      "stateMutability": "view",
      "type": "function"
    },
    {
      "inputs": [
        {
          "internalType": "uint256",
          "name": "",
          "type": "uint256"
        },
        {
          "internalType": "uint256",
          "name": "",
          "type": "uint256"
        },
        {
          "internalType": "uint256",
          "name": "",
          "type": "uint256"
        }
      ],
      "name": "ticketsByNumber",
      "outputs": [
        {
          "internalType": "uint64",
          "name": "",
          "type": "uint64"
        }
      ],
      "stateMutability": "view",
      "type": "function"
    },
    {
      "inputs": [
        {
          "internalType": "address",
          "name": "",
          "type": "address"
        },
        {
          "internalType": "uint256",
          "name": "",
          "type": "uint256"
        }
      ],
      "name": "ticketsByPlayer",
      "outputs": [
        {
          "internalType": "uint64",
          "name": "id",
          "type": "uint64"
        },
        {
          "internalType": "uint64",
          "name": "round",
          "type": "uint64"
        },
        {
          "internalType": "uint64",
          "name": "timestamp",
          "type": "uint64"
        },
        {
          "internalType": "uint64",
          "name": "cardinality",
          "type": "uint64"
        }
      ],
      "stateMutability": "view",
      "type": "function"
    },
    {
      "inputs": [
        {
          "internalType": "address",
          "name": "newOwner",
          "type": "address"
        }
      ],
      "name": "transferOwnership",
      "outputs": [],
      "stateMutability": "nonpayable",
      "type": "function"
    },
    {
      "inputs": [],
      "name": "unpause",
      "outputs": [],
      "stateMutability": "nonpayable",
      "type": "function"
    },
    {
      "inputs": [
        {
          "internalType": "address",
          "name": "newImplementation",
          "type": "address"
        }
      ],
      "name": "upgradeTo",
      "outputs": [],
      "stateMutability": "nonpayable",
      "type": "function"
    },
    {
      "inputs": [
        {
          "internalType": "address",
          "name": "newImplementation",
          "type": "address"
        },
        {
          "internalType": "bytes",
          "name": "data",
          "type": "bytes"
        }
      ],
      "name": "upgradeToAndCall",
      "outputs": [],
      "stateMutability": "payable",
      "type": "function"
    },
    {
      "inputs": [
        {
          "internalType": "address payable",
          "name": "payee",
          "type": "address"
        }
      ],
      "name": "withdrawPayments",
      "outputs": [],
      "stateMutability": "nonpayable",
      "type": "function"
    },
    {
      "stateMutability": "payable",
      "type": "receive"
    }
  ],
  "bytecode": "0x60a0604052306080523480156200001557600080fd5b506200002062000026565b62000091565b600054610100900460ff16156200003c57600080fd5b60005460ff90811610156200008f576000805460ff191660ff9081179091556040519081527f7f26b83ff96e1f2b6a682f133852f6798a09c465da95921460cefb38474024989060200160405180910390a15b565b608051614ee5620000c9600039600081816110b9015281816110e6015281816115d70152818161160401526116ca0152614ee56000f3fe60806040526004361061026e5760003560e01c8063715018a611610153578063972f79da116100cb578063d3dc82d51161007f578063e278fe6f11610064578063e278fe6f14610757578063e2982c211461076c578063f2fde38b1461078c57600080fd5b8063d3dc82d514610717578063d9f9bbd91461073757600080fd5b8063c19d93fb116100b0578063c19d93fb1461069b578063c4d66de8146106d7578063cf339588146106f757600080fd5b8063972f79da14610671578063ad6ad7521461068457600080fd5b80637dacd72b116101225780638456cb59116101075780638456cb59146106035780638a19c8bc146106185780638da5cb5b1461064657600080fd5b80637dacd72b1461058f578063843bf798146105af57600080fd5b8063715018a6146105165780637286d7021461052b57806374f47a7a1461055857806376870bb21461056f57600080fd5b80633e578e72116101e657806352d1902d116101b55780635c975abb1161019a5780635c975abb146104ae5780635ff8b778146104c65780636031a52f146104db57600080fd5b806352d1902d146104795780635605c22a1461048e57600080fd5b80633e578e72146104015780633f4ba83a1461043157806346ee2bc2146104465780634f1ef2861461046657600080fd5b80631fe543e31161023d57806331b3eb941161022257806331b3eb941461039c5780633659cfe6146103bc5780633cc82e09146103dc57600080fd5b80631fe543e31461036557806328d80e101461038757600080fd5b806307bbb3fc1461027a5780630cc36c36146102ad57806311463a06146102cd5780631c8fbff9146102fc57600080fd5b3661027557005b600080fd5b34801561028657600080fd5b5061029a610295366004613bbe565b6107ac565b6040519081526020015b60405180910390f35b3480156102b957600080fd5b5061029a6102c8366004613c00565b6109bf565b3480156102d957600080fd5b506102ed6102e8366004613c2f565b6109e6565b6040516102a493929190613c4c565b34801561030857600080fd5b50610340610317366004613c00565b6101686020526000908152604090205473ffffffffffffffffffffffffffffffffffffffff1681565b60405173ffffffffffffffffffffffffffffffffffffffff90911681526020016102a4565b34801561037157600080fd5b50610385610380366004613dec565b610bbf565b005b34801561039357600080fd5b50610385610f0f565b3480156103a857600080fd5b506103856103b7366004613eb0565b61101a565b3480156103c857600080fd5b506103856103d7366004613eb0565b6110a2565b3480156103e857600080fd5b506103f16111a1565b60405190151581526020016102a4565b34801561040d57600080fd5b5061042161041c366004613c2f565b611235565b6040516102a49493929190613ecd565b34801561043d57600080fd5b5061038561157c565b34801561045257600080fd5b5061029a610461366004613f4c565b61158e565b610385610474366004613f78565b6115c0565b34801561048557600080fd5b5061029a6116b0565b34801561049a57600080fd5b506103406104a9366004613c00565b611719565b3480156104ba57600080fd5b5060c95460ff166103f1565b3480156104d257600080fd5b50610385611751565b3480156104e757600080fd5b50610162546104fd9067ffffffffffffffff1681565b60405167ffffffffffffffff90911681526020016102a4565b34801561052257600080fd5b5061038561194d565b34801561053757600080fd5b5061054b61054636600461403e565b61195f565b6040516102a49190614077565b34801561056457600080fd5b5061029a6101635481565b34801561057b57600080fd5b5061054b61058a366004613eb0565b611a49565b34801561059b57600080fd5b506104fd6105aa3660046140c5565b611b28565b3480156105bb57600080fd5b506105cf6105ca366004613f4c565b611b96565b6040805167ffffffffffffffff958616815293851660208501529184169183019190915290911660608201526080016102a4565b34801561060f57600080fd5b50610385611c14565b34801561062457600080fd5b50610162546104fd9068010000000000000000900467ffffffffffffffff1681565b34801561065257600080fd5b5060975473ffffffffffffffffffffffffffffffffffffffff16610340565b61038561067f3660046140f1565b611c24565b34801561069057600080fd5b5061029a6101615481565b3480156106a757600080fd5b50610162546106ca90700100000000000000000000000000000000900460ff1681565b6040516102a4919061416c565b3480156106e357600080fd5b506103856106f2366004613eb0565b61203c565b34801561070357600080fd5b5061029a610712366004613eb0565b612288565b34801561072357600080fd5b506103856107323660046141ad565b61231d565b34801561074357600080fd5b506103856107523660046141cb565b6124dc565b34801561076357600080fd5b50610385612585565b34801561077857600080fd5b5061029a610787366004613eb0565b61271b565b34801561079857600080fd5b506103856107a7366004613eb0565b6127b0565b60008061016254700100000000000000000000000000000000900460ff1660038111156107db576107db61413d565b146107e557600080fd5b60068210156107f357600080fd5b605a82111561080157600080fd5b60005b82811015610913576000848483818110610820576108206141f0565b9050602002016020810190610835919061422e565b60ff1611801561086f5750605a848483818110610854576108546141f0565b9050602002016020810190610869919061422e565b60ff1611155b61087857600080fd5b600061088582600161427a565b90505b83811015610900578484828181106108a2576108a26141f0565b90506020020160208101906108b7919061422e565b60ff168585848181106108cc576108cc6141f0565b90506020020160208101906108e1919061422e565b60ff16036108ee57600080fd5b806108f88161428d565b915050610888565b508061090b8161428d565b915050610804565b506040517f13ba8000000000000000000000000000000000000000000000000000000000008152600481018390526006602482015273__$fd6fd487ef39e871a604f035cf7ab8fdb0$__906313ba800090604401602060405180830381865af4158015610984573d6000803e3d6000fd5b505050506040513d601f19601f820116820180604052508101906109a891906142c5565b610161546109b691906142de565b90505b92915050565b61016781815481106109d057600080fd5b6000918252602090912060079091020154905081565b60006109f0613922565b6109f8613940565b6101675467ffffffffffffffff851610610a1157600080fd5b61016754610a21906001906142f5565b8467ffffffffffffffff161080610a635750600161016254700100000000000000000000000000000000900460ff166003811115610a6157610a6161413d565b115b610a6c57600080fd5b60006101678567ffffffffffffffff1681548110610a8c57610a8c6141f0565b60009182526020822060079091020180546040805160c0810191829052929450909260018501926002860192909184916006918390855b825461010083900a900460ff16815260206001928301818104948501949093039092029101808411610ac357905050506040805160a081019091529395508492506005915060009050835b82821015610bab57838201805480602002602001604051908101604052809291908181526020018280548015610b9757602002820191906000526020600020906000905b82829054906101000a900467ffffffffffffffff1667ffffffffffffffff1681526020019060080190602082600701049283019260010382029150808411610b525790505b505050505081526020019060010190610b0e565b505050509050935093509350509193909250565b610bc76127e1565b6101605473ffffffffffffffffffffffffffffffffffffffff163314610bec57600080fd5b600161016254700100000000000000000000000000000000900460ff166003811115610c1a57610c1a61413d565b14610c2457600080fd5b610162546101678054439268010000000000000000900467ffffffffffffffff16908110610c5457610c546141f0565b90600052602060002090600702016000018190555073__$fd6fd487ef39e871a604f035cf7ab8fdb0$__63a031f51961016661016260089054906101000a900467ffffffffffffffff1667ffffffffffffffff1681548110610cb857610cb86141f0565b90600052602060002090605a020173__$fd6fd487ef39e871a604f035cf7ab8fdb0$__631d99d73985600081518110610cf357610cf36141f0565b60200260200101516040518263ffffffff1660e01b8152600401610d1991815260200190565b60c060405180830381865af4158015610d36573d6000803e3d6000fd5b505050506040513d601f19601f82011682018060405250810190610d5a9190614308565b6040518363ffffffff1660e01b8152600401610d7792919061438f565b60c060405180830381865af4158015610d94573d6000803e3d6000fd5b505050506040513d601f19601f82011682018060405250810190610db89190614308565b610162546101678054909168010000000000000000900467ffffffffffffffff16908110610de857610de86141f0565b9060005260206000209060070201600101906006610e07929190613967565b5061016280547fffffffffffffffffffffffffffffff00ffffffffffffffffffffffffffffffff16700200000000000000000000000000000000179081905561016780546801000000000000000090920467ffffffffffffffff16917fc414672558763b2c22b1dec992daae1def6a6c0821d330f4a05d0f0be43f2569919083908110610e9657610e966141f0565b906000526020600020906007020160010147604051610f03929190915460ff8082168452600882901c8116602080860191909152601083901c82166040860152601883901c8216606086015282901c8116608085015260289190911c1660a083015260c082015260e00190565b60405180910390a25050565b610f176127f1565b600161016254700100000000000000000000000000000000900460ff166003811115610f4557610f4561413d565b14610f4f57600080fd5b61384073__$fd6fd487ef39e871a604f035cf7ab8fdb0$__63e09530116040518163ffffffff1660e01b8152600401602060405180830381865af4158015610f9b573d6000803e3d6000fd5b505050506040513d601f19601f82011682018060405250810190610fbf91906142c5565b610fc9919061427a565b4211610fd457600080fd5b6101628054600091907fffffffffffffffffffffffffffffff00ffffffffffffffffffffffffffffffff16700100000000000000000000000000000000835b0217905550565b60fb546040517f51cff8d900000000000000000000000000000000000000000000000000000000815273ffffffffffffffffffffffffffffffffffffffff8381166004830152909116906351cff8d990602401600060405180830381600087803b15801561108757600080fd5b505af115801561109b573d6000803e3d6000fd5b5050505050565b73ffffffffffffffffffffffffffffffffffffffff7f00000000000000000000000000000000000000000000000000000000000000001630036110e457600080fd5b7f000000000000000000000000000000000000000000000000000000000000000073ffffffffffffffffffffffffffffffffffffffff166111597f360894a13ba1a3210667c828492db98dca3e2076cc3735a920a3ca505d382bbc5473ffffffffffffffffffffffffffffffffffffffff1690565b73ffffffffffffffffffffffffffffffffffffffff161461117957600080fd5b61118281612815565b6040805160008082526020820190925261119e9183919061281d565b50565b6000610163544210156111b45750600090565b61384073__$fd6fd487ef39e871a604f035cf7ab8fdb0$__63e09530116040518163ffffffff1660e01b8152600401602060405180830381865af4158015611200573d6000803e3d6000fd5b505050506040513d601f19601f8201168201806040525081019061122491906142c5565b61122e919061427a565b4210905090565b600080600060606101658567ffffffffffffffff168154811061125a5761125a6141f0565b60009182526020909120015473ffffffffffffffffffffffffffffffffffffffff1693508361128857600080fd5b73ffffffffffffffffffffffffffffffffffffffff84166000908152610164602052604080822090517f585c42d0000000000000000000000000000000000000000000000000000000008152600481019190915267ffffffffffffffff8716602482015273__$b637e351e3541cbfbd94e34b5569c303ee$__9063585c42d090604401602060405180830381865af4158015611328573d6000803e3d6000fd5b505050506040513d601f19601f8201168201806040525081019061134c91906142c5565b805467ffffffffffffffff6801000000000000000082048116965070010000000000000000000000000000000090910416935090506113896139fa565b6000805b605a8160ff1610156114d35783546101668054909168010000000000000000900467ffffffffffffffff169081106113c7576113c76141f0565b90600052602060002090605a02018160ff16605a81106113e9576113e96141f0565b6040517ff98478bb0000000000000000000000000000000000000000000000000000000081529101600482015267ffffffffffffffff8a16602482015273__$885d92ab87e54f7517e7fc0e30a37cf931$__9063f98478bb90604401602060405180830381865af4158015611462573d6000803e3d6000fd5b505050506040513d601f19601f8201168201806040525081019061148691906143ca565b156114c1576114968160016143ec565b83836114a18161428d565b9450605a81106114b3576114b36141f0565b60ff90921660209290920201525b806114cb81614405565b91505061138d565b508067ffffffffffffffff8111156114ed576114ed613d21565b604051908082528060200260200182016040528015611516578160200160208202803683370190505b50935060005b81811015611571578281605a8110611536576115366141f0565b602002015185828151811061154d5761154d6141f0565b60ff90921660209283029190910190910152806115698161428d565b91505061151c565b505050509193509193565b6115846127f1565b61158c612916565b565b61016960205281600052604060002081815481106115ab57600080fd5b90600052602060002001600091509150505481565b73ffffffffffffffffffffffffffffffffffffffff7f000000000000000000000000000000000000000000000000000000000000000016300361160257600080fd5b7f000000000000000000000000000000000000000000000000000000000000000073ffffffffffffffffffffffffffffffffffffffff166116777f360894a13ba1a3210667c828492db98dca3e2076cc3735a920a3ca505d382bbc5473ffffffffffffffffffffffffffffffffffffffff1690565b73ffffffffffffffffffffffffffffffffffffffff161461169757600080fd5b6116a082612815565b6116ac8282600161281d565b5050565b60003073ffffffffffffffffffffffffffffffffffffffff7f000000000000000000000000000000000000000000000000000000000000000016146116f457600080fd5b507f360894a13ba1a3210667c828492db98dca3e2076cc3735a920a3ca505d382bbc90565b610165818154811061172a57600080fd5b60009182526020909120015473ffffffffffffffffffffffffffffffffffffffff16905081565b6117596127f1565b600261016254700100000000000000000000000000000000900460ff1660038111156117875761178761413d565b1461179157600080fd5b610162546101668054909168010000000000000000900467ffffffffffffffff169081106117c1576117c16141f0565b90600052602060002090605a020173__$7dca940b032457042b5feb8bef38a04114$__639bbfe477909161016761016260089054906101000a900467ffffffffffffffff1667ffffffffffffffff1681548110611820576118206141f0565b90600052602060002090600702016001016040518363ffffffff1660e01b8152600401611857929190918252602082015260400190565b600060405180830381865af4158015611874573d6000803e3d6000fd5b505050506040513d6000823e601f3d9081017fffffffffffffffffffffffffffffffffffffffffffffffffffffffffffffffe01682016040526118ba9190810190614493565b610162546101678054909168010000000000000000900467ffffffffffffffff169081106118ea576118ea6141f0565b9060005260206000209060070201600201906005611909929190613a19565b506101628054600391907fffffffffffffffffffffffffffffff00ffffffffffffffffffffffffffffffff1670010000000000000000000000000000000083611013565b6119556127f1565b61158c6000612993565b73ffffffffffffffffffffffffffffffffffffffff8216600090815261016460205260409081902090517f9ec6f7e4000000000000000000000000000000000000000000000000000000008152600481019190915267ffffffffffffffff8216602482015260609073__$b637e351e3541cbfbd94e34b5569c303ee$__90639ec6f7e490604401600060405180830381865af4158015611a03573d6000803e3d6000fd5b505050506040513d6000823e601f3d9081017fffffffffffffffffffffffffffffffffffffffffffffffffffffffffffffffe01682016040526109b6919081019061452e565b73ffffffffffffffffffffffffffffffffffffffff8116600090815261016460205260409081902090517fa934cf1b00000000000000000000000000000000000000000000000000000000815260609173__$b637e351e3541cbfbd94e34b5569c303ee$__9163a934cf1b91611ac59160040190815260200190565b600060405180830381865af4158015611ae2573d6000803e3d6000fd5b505050506040513d6000823e601f3d9081017fffffffffffffffffffffffffffffffffffffffffffffffffffffffffffffffe01682016040526109b9919081019061452e565b6101668381548110611b3957600080fd5b90600052602060002090605a020182605a8110611b5557600080fd5b018181548110611b6457600080fd5b906000526020600020906004918282040191900660080292509250509054906101000a900467ffffffffffffffff1681565b6101646020528160005260406000208181548110611bb357600080fd5b60009182526020909120015467ffffffffffffffff8082169350680100000000000000008204811692507001000000000000000000000000000000008204811691780100000000000000000000000000000000000000000000000090041684565b611c1c6127f1565b61158c612a0a565b611c2c6127e1565b611c34612a65565b6000611c4083836107ac565b9050803414611c4e57600080fd5b6000848152610168602052604090205473ffffffffffffffffffffffffffffffffffffffff16841580611c96575073ffffffffffffffffffffffffffffffffffffffff811615155b611c9f57600080fd5b610162805460009167ffffffffffffffff9091169082611cbe8361456b565b82546101009290920a67ffffffffffffffff818102199093169183160217909155336000818152610164602090815260408083208151608081018352878716815261016254680100000000000000009081900488168286019081524289169483019485528d8916606084019081528454600181810187559589529688209351939096018054915195519651938a167fffffffffffffffffffffffffffffffff0000000000000000000000000000000090921691909117948916909102939093176fffffffffffffffffffffffffffffffff167001000000000000000000000000000000009488169490940277ffffffffffffffffffffffffffffffffffffffffffffffff169390931778010000000000000000000000000000000000000000000000009390961692909202949094179093556101658054938401815581527fd91ca5e44fa96a1732bfaed7fe33fc20ed69a9895cde1f18c7dcabca39d6a78b90920180547fffffffffffffffffffffffff00000000000000000000000000000000000000001690911790559091505b84811015611f2b57610162546101668054909168010000000000000000900467ffffffffffffffff16908110611e8557611e856141f0565b90600052602060002090605a02016001878784818110611ea757611ea76141f0565b9050602002016020810190611ebc919061422e565b611ec69190614592565b60ff16605a8110611ed957611ed96141f0565b018054600181018255600091825260209091206004820401805460039092166008026101000a67ffffffffffffffff818102199093169285160291909117905580611f238161428d565b915050611e4d565b5061016254604051339168010000000000000000900467ffffffffffffffff16907f2b0b417f7acb6d627989d9769e8523c0eb13d6dadadf8d46fe3d6b399497316d90611f7b90899089906145ab565b60405180910390a38515611ffd576000611f96600a346145e8565b9050611fd781611fbb60975473ffffffffffffffffffffffffffffffffffffffff1690565b73ffffffffffffffffffffffffffffffffffffffff1690612a7d565b611ff773ffffffffffffffffffffffffffffffffffffffff841682612a7d565b50612029565b61202961200b6005346145e8565b60975473ffffffffffffffffffffffffffffffffffffffff16611fbb565b505050612037600161012e55565b505050565b600054610100900460ff161580801561205c5750600054600160ff909116105b806120765750303b158015612076575060005460ff166001145b61207f57600080fd5b600080547fffffffffffffffffffffffffffffffffffffffffffffffffffffffffffffff0016600117905580156120dd57600080547fffffffffffffffffffffffffffffffffffffffffffffffffffffffffffff00ff166101001790555b6120e5612aff565b6120ed612b13565b6120f5612b2f565b6120fd612b4b565b612105612b67565b61016080547fffffffffffffffffffffffff00000000000000000000000000000000000000001673ffffffffffffffffffffffffffffffffffffffff841617905561214e612b83565b610162805461016680546001908101909155610167805490910181556000527fffffffffffffffffffffffffffffff0000000000000000000000000000000000169055604080517f74f47a7a000000000000000000000000000000000000000000000000000000008152905173__$fd6fd487ef39e871a604f035cf7ab8fdb0$__916374f47a7a9160048281019260209291908290030181865af41580156121fa573d6000803e3d6000fd5b505050506040513d601f19601f8201168201806040525081019061221e91906142c5565b6101635580156116ac57600080547fffffffffffffffffffffffffffffffffffffffffffffffffffffffffffff00ff169055604051600181527f7f26b83ff96e1f2b6a682f133852f6798a09c465da95921460cefb38474024989060200160405180910390a15050565b60006122926127e1565b6040517f45746865726e614c6f74746f5f526566657272616c000000000000000000000060208201524260358201527fffffffffffffffffffffffffffffffffffffffff000000000000000000000000606084901b16605582015260009060690160405160208183030381529060405280519060200120905061231581846124dc565b90505b919050565b6123256127f1565b600061016254700100000000000000000000000000000000900460ff1660038111156123535761235361413d565b1461235d57600080fd5b6123656111a1565b61236e57600080fd5b61016280547fffffffffffffffffffffffffffffff00ffffffffffffffffffffffffffffffff16700100000000000000000000000000000000179055610163805462093a8091906000906123c390849061427a565b9091555050610160546040517f5d3b1d300000000000000000000000000000000000000000000000000000000081526004810183905267ffffffffffffffff84166024820152600a6044820152620493e060648201526001608482015260009173ffffffffffffffffffffffffffffffffffffffff1690635d3b1d309060a4016020604051808303816000875af1158015612462573d6000803e3d6000fd5b505050506040513d601f19601f8201168201806040525081019061248691906142c5565b6101625460405182815291925068010000000000000000900467ffffffffffffffff16907fd21527841cb43111f0a92dbf3e62aa5a4382d8e295225c00a2b71ce800b583b49060200160405180910390a2505050565b6124e46127e1565b6000828152610168602052604090205473ffffffffffffffffffffffffffffffffffffffff161561251457600080fd5b600082815261016860209081526040808320805473ffffffffffffffffffffffffffffffffffffffff9095167fffffffffffffffffffffffff000000000000000000000000000000000000000090951685179055928252610169815291812080546001810182559082529190200155565b61258d6127f1565b600361016254700100000000000000000000000000000000900460ff1660038111156125bb576125bb61413d565b146125c557600080fd5b610162546101678054479260009261261492909168010000000000000000900467ffffffffffffffff169081106125fe576125fe6141f0565b9060005260206000209060070201600201612cff565b905060005b81518110156126c0576126ae61016583838151811061263a5761263a6141f0565b60200260200101516000015167ffffffffffffffff1681548110612660576126606141f0565b9060005260206000200160009054906101000a900473ffffffffffffffffffffffffffffffffffffffff1683838151811061269d5761269d6141f0565b6020026020010151602001516133e0565b806126b88161428d565b915050612619565b50610162546040518381526801000000000000000090910467ffffffffffffffff16907fcaddfa0c704d4cc5b097641886c92fec2ac7dddfe5756630f2dc27fd4e216b539060200160405180910390a25060606116ac61346b565b60fb546040517fe3a9db1a00000000000000000000000000000000000000000000000000000000815273ffffffffffffffffffffffffffffffffffffffff8381166004830152600092169063e3a9db1a90602401602060405180830381865afa15801561278c573d6000803e3d6000fd5b505050506040513d601f19601f820116820180604052508101906109b991906142c5565b6127b86127f1565b73ffffffffffffffffffffffffffffffffffffffff81166127d857600080fd5b61119e81612993565b60c95460ff161561158c57600080fd5b60975473ffffffffffffffffffffffffffffffffffffffff16331461158c57600080fd5b61119e6127f1565b7f4910fdfa16fed3260ed0e7147f7cc6da11a60208b5b9406d12a635614ffd91435460ff16156128505761203783613501565b8273ffffffffffffffffffffffffffffffffffffffff166352d1902d6040518163ffffffff1660e01b8152600401602060405180830381865afa9250505080156128d5575060408051601f3d9081017fffffffffffffffffffffffffffffffffffffffffffffffffffffffffffffffe01682019092526128d2918101906142c5565b60015b6128de57600080fd5b7f360894a13ba1a3210667c828492db98dca3e2076cc3735a920a3ca505d382bbc811461290a57600080fd5b50612037838383613588565b61291e6135b3565b60c980547fffffffffffffffffffffffffffffffffffffffffffffffffffffffffffffff001690557f5db9ee0a495bf2e6ff9c91a7834c1ba4fdd244a5e8aa4e537bd38aeae4b073aa335b60405173ffffffffffffffffffffffffffffffffffffffff909116815260200160405180910390a1565b6097805473ffffffffffffffffffffffffffffffffffffffff8381167fffffffffffffffffffffffff0000000000000000000000000000000000000000831681179093556040519116919082907f8be0079c531659141344cd1fd0a4f28419497f9722a3daafe3b4186f6b6457e090600090a35050565b612a126127e1565b60c980547fffffffffffffffffffffffffffffffffffffffffffffffffffffffffffffff001660011790557f62e78cea01bee320cd4e420270b5ea74000d11b0c9f74754ebdbfc544b05a2586129693390565b600261012e5403612a7557600080fd5b600261012e55565b80471015612a8a57600080fd5b60008273ffffffffffffffffffffffffffffffffffffffff168260405160006040518083038185875af1925050503d8060008114612ae4576040519150601f19603f3d011682016040523d82523d6000602084013e612ae9565b606091505b505090508061203757600080fd5b600161012e55565b600054610100900460ff1661158c57600080fd5b600054610100900460ff16612b2757600080fd5b61158c6135c2565b600054610100900460ff16612b4357600080fd5b61158c6135df565b600054610100900460ff16612b5f57600080fd5b61158c61361d565b600054610100900460ff16612b7b57600080fd5b61158c613702565b6000735f4ec3df9cbd43714fe2740f5e3616155c5b8419905060008173ffffffffffffffffffffffffffffffffffffffff1663feaf968c6040518163ffffffff1660e01b815260040160a060405180830381865afa158015612be9573d6000803e3d6000fd5b505050506040513d601f19601f82011682018060405250810190612c0d919061463d565b505050915050808273ffffffffffffffffffffffffffffffffffffffff1663313ce5676040518163ffffffff1660e01b8152600401602060405180830381865afa158015612c5f573d6000803e3d6000fd5b505050506040513d601f19601f82011682018060405250810190612c83919061468d565b612c8e9060106143ec565b612c9990600a6147ca565b612ca49060966142de565b612cae91906145e8565b6101618190556101625460405191825268010000000000000000900467ffffffffffffffff16907f518fe80aeb272420491f8ad180626d54763ce6b3774166d76950d2f7c2828c2890602001610f03565b6060612d09613940565b600060045b60008112612dbe57848160058110612d2857612d286141f0565b0154612d34908361427a565b91508167ffffffffffffffff811115612d4f57612d4f613d21565b604051908082528060200260200182016040528015612d9457816020015b6040805180820190915260008082526020820152815260200190600190039081612d6d5790505b50838260058110612da757612da76141f0565b602002015280612db6816147d9565b915050612d0e565b50600060045b6000811261311c57806000612dda82600261427a565b905060005b888360058110612df157612df16141f0565b01548110156130e6576000612e528a8560058110612e1157612e116141f0565b018381548110612e2357612e236141f0565b90600052602060002090600491828204019190066008029054906101000a900467ffffffffffffffff16613716565b9050845b600081126130d1576000612e6b82600261427a565b90508b8660058110612e7f57612e7f6141f0565b018481548110612e9157612e916141f0565b90600052602060002090600491828204019190066008029054906101000a900467ffffffffffffffff168a8760058110612ecd57612ecd6141f0565b6020020151612edc868b61427a565b81518110612eec57612eec6141f0565b602090810291909101015167ffffffffffffffff9182169052835473__$fd6fd487ef39e871a604f035cf7ab8fdb0$__916313ba800091612f4b91899178010000000000000000000000000000000000000000000000009004166142f5565b612f568460066142f5565b6040517fffffffff0000000000000000000000000000000000000000000000000000000060e085901b16815260048101929092526024820152604401602060405180830381865af4158015612faf573d6000803e3d6000fd5b505050506040513d601f19601f82011682018060405250810190612fd391906142c5565b6040517f13ba8000000000000000000000000000000000000000000000000000000000008152600481018790526024810183905273__$fd6fd487ef39e871a604f035cf7ab8fdb0$__906313ba800090604401602060405180830381865af4158015613043573d6000803e3d6000fd5b505050506040513d601f19601f8201168201806040525081019061306791906142c5565b61307191906142de565b8a8760058110613083576130836141f0565b6020020151613092868b61427a565b815181106130a2576130a26141f0565b60200260200101516020018181516130ba919061427a565b9052508190506130c9816147d9565b915050612e56565b505080806130de9061428d565b915050612ddf565b508782600581106130f9576130f96141f0565b0154613105908561427a565b935050508080613114906147d9565b915050612dc4565b504760005b60058110156132fd576000805b868360058110613140576131406141f0565b6020020151518110156131a05786836005811061315f5761315f6141f0565b60200201518181518110613175576131756141f0565b6020026020010151602001518261318c919061427a565b9150806131988161428d565b91505061312e565b50801561327c5760005b8683600581106131bc576131bc6141f0565b6020020151518110156132765760008784600581106131dd576131dd6141f0565b602002015182815181106131f3576131f36141f0565b602002602001015160200151905082606461320e91906142de565b61321882876142de565b6132239060126142de565b61322d91906145e8565b88856005811061323f5761323f6141f0565b60200201518381518110613255576132556141f0565b6020908102919091018101510152508061326e8161428d565b9150506131aa565b506132ea565b60005b868360058110613291576132916141f0565b6020020151518110156132e85760008784600581106132b2576132b26141f0565b602002015182815181106132c8576132c86141f0565b6020908102919091018101510152806132e08161428d565b91505061327f565b505b50806132f58161428d565b915050613121565b50600061330c600160056142f5565b90505b80156133d45760005b85826005811061332a5761332a6141f0565b6020020151518110156133c157858260058110613349576133496141f0565b6020020151818151811061335f5761335f6141f0565b6020026020010151602001518660006005811061337e5761337e6141f0565b60200201518281518110613394576133946141f0565b60200260200101516020018181516133ac919061427a565b905250806133b98161428d565b915050613318565b50806133cc81614830565b91505061330f565b50509151949350505050565b60fb546040517ff340fa0100000000000000000000000000000000000000000000000000000000815273ffffffffffffffffffffffffffffffffffffffff84811660048301529091169063f340fa019083906024016000604051808303818588803b15801561344e57600080fd5b505af1158015613462573d6000803e3d6000fd5b50505050505050565b610162805468010000000000000000900467ffffffffffffffff169060086134928361456b565b825467ffffffffffffffff9182166101009390930a928302919092021990911617905550610166805460019081019091556101678054909101815560005261016280547fffffffffffffffffffffffffffffff00ffffffffffffffffffffffffffffffff16905561158c612b83565b73ffffffffffffffffffffffffffffffffffffffff81163b61352257600080fd5b7f360894a13ba1a3210667c828492db98dca3e2076cc3735a920a3ca505d382bbc80547fffffffffffffffffffffffff00000000000000000000000000000000000000001673ffffffffffffffffffffffffffffffffffffffff92909216919091179055565b613591836137e9565b60008251118061359e5750805b15612037576135ad8383613836565b50505050565b60c95460ff1661158c57600080fd5b600054610100900460ff166135d657600080fd5b61158c33612993565b600054610100900460ff166135f357600080fd5b60c980547fffffffffffffffffffffffffffffffffffffffffffffffffffffffffffffff00169055565b600054610100900460ff1661363157600080fd5b60405161363d90613a65565b604051809103906000f080158015613659573d6000803e3d6000fd5b5060fb80547fffffffffffffffffffffffff00000000000000000000000000000000000000001673ffffffffffffffffffffffffffffffffffffffff929092169182179055604080517f8129fc1c0000000000000000000000000000000000000000000000000000000081529051638129fc1c9160048082019260009290919082900301818387803b1580156136ee57600080fd5b505af11580156135ad573d6000803e3d6000fd5b600054610100900460ff16612af757600080fd5b600061016460006101658467ffffffffffffffff168154811061373b5761373b6141f0565b60009182526020808320919091015473ffffffffffffffffffffffffffffffffffffffff168352820192909252604090810190912090517f585c42d0000000000000000000000000000000000000000000000000000000008152600481019190915267ffffffffffffffff8316602482015273__$b637e351e3541cbfbd94e34b5569c303ee$__9063585c42d090604401602060405180830381865af415801561278c573d6000803e3d6000fd5b6137f281613501565b60405173ffffffffffffffffffffffffffffffffffffffff8216907fbc7cd75a20ee27fd9adebab32041f755214dbc6bffa90cc0225b39da2e5c2d3b90600090a250565b606073ffffffffffffffffffffffffffffffffffffffff83163b61385957600080fd5b6000808473ffffffffffffffffffffffffffffffffffffffff1684604051613881919061483f565b600060405180830381855af49150503d80600081146138bc576040519150601f19603f3d011682016040523d82523d6000602084013e6138c1565b606091505b50915091506138e98282604051806060016040528060278152602001614e89602791396138f2565b95945050505050565b6060831561390157508161390b565b61390b8383613912565b9392505050565b8151156102755781518083602001fd5b6040518060c001604052806006906020820280368337509192915050565b6040518060a001604052806005905b606081526020019060019003908161394f5790505090565b6001830191839082156139ea5791602002820160005b838211156139bb57835183826101000a81548160ff021916908360ff160217905550926020019260010160208160000104928301926001030261397d565b80156139e85782816101000a81549060ff02191690556001016020816000010492830192600103026139bb565b505b506139f6929150613a72565b5090565b60405180610b400160405280605a906020820280368337509192915050565b8260058101928215613a59579160200282015b82811115613a595782518051613a49918491602090910190613a87565b5091602001919060010190613a2c565b506139f6929150613b30565b61061a8061486f83390190565b5b808211156139f65760008155600101613a73565b828054828255906000526020600020906003016004900481019282156139ea5791602002820160005b83821115613afc57835183826101000a81548167ffffffffffffffff021916908367ffffffffffffffff1602179055509260200192600801602081600701049283019260010302613ab0565b80156139e85782816101000a81549067ffffffffffffffff0219169055600801602081600701049283019260010302613afc565b808211156139f6576000613b448282613b4d565b50600101613b30565b50805460008255600301600490049060005260206000209081019061119e9190613a72565b60008083601f840112613b8457600080fd5b50813567ffffffffffffffff811115613b9c57600080fd5b6020830191508360208260051b8501011115613bb757600080fd5b9250929050565b60008060208385031215613bd157600080fd5b823567ffffffffffffffff811115613be857600080fd5b613bf485828601613b72565b90969095509350505050565b600060208284031215613c1257600080fd5b5035919050565b67ffffffffffffffff8116811461119e57600080fd5b600060208284031215613c4157600080fd5b813561390b81613c19565b600061010080830186845260208085018760005b6006811015613c8057815160ff1683529183019190830190600101613c60565b50505060e0850192909252906101a08401908560005b6005811015613d13578684037fffffffffffffffffffffffffffffffffffffffffffffffffffffffffffffff0001855281518051808652908401908486019060005b81811015613cfe57835167ffffffffffffffff1683529286019291860191600101613cd8565b50509584019594505090820190600101613c96565b509198975050505050505050565b7f4e487b7100000000000000000000000000000000000000000000000000000000600052604160045260246000fd5b60405160a0810167ffffffffffffffff81118282101715613d7357613d73613d21565b60405290565b604051601f82017fffffffffffffffffffffffffffffffffffffffffffffffffffffffffffffffe016810167ffffffffffffffff81118282101715613dc057613dc0613d21565b604052919050565b600067ffffffffffffffff821115613de257613de2613d21565b5060051b60200190565b60008060408385031215613dff57600080fd5b8235915060208084013567ffffffffffffffff811115613e1e57600080fd5b8401601f81018613613e2f57600080fd5b8035613e42613e3d82613dc8565b613d79565b81815260059190911b82018301908381019088831115613e6157600080fd5b928401925b82841015613e7f57833582529284019290840190613e66565b80955050505050509250929050565b73ffffffffffffffffffffffffffffffffffffffff8116811461119e57600080fd5b600060208284031215613ec257600080fd5b813561390b81613e8e565b60006080820173ffffffffffffffffffffffffffffffffffffffff87168352602067ffffffffffffffff8716818501528560408501526080606085015281855180845260a086019150828701935060005b81811015613f3d57845160ff1683529383019391830191600101613f1e565b50909998505050505050505050565b60008060408385031215613f5f57600080fd5b8235613f6a81613e8e565b946020939093013593505050565b60008060408385031215613f8b57600080fd5b8235613f9681613e8e565b915060208381013567ffffffffffffffff80821115613fb457600080fd5b818601915086601f830112613fc857600080fd5b813581811115613fda57613fda613d21565b61400a847fffffffffffffffffffffffffffffffffffffffffffffffffffffffffffffffe0601f84011601613d79565b9150808252878482850101111561402057600080fd5b80848401858401376000848284010152508093505050509250929050565b6000806040838503121561405157600080fd5b823561405c81613e8e565b9150602083013561406c81613c19565b809150509250929050565b6020808252825182820181905260009190848201906040850190845b818110156140b957835167ffffffffffffffff1683529284019291840191600101614093565b50909695505050505050565b6000806000606084860312156140da57600080fd5b505081359360208301359350604090920135919050565b60008060006040848603121561410657600080fd5b83359250602084013567ffffffffffffffff81111561412457600080fd5b61413086828701613b72565b9497909650939450505050565b7f4e487b7100000000000000000000000000000000000000000000000000000000600052602160045260246000fd5b60208101600483106141a7577f4e487b7100000000000000000000000000000000000000000000000000000000600052602160045260246000fd5b91905290565b600080604083850312156141c057600080fd5b8235613f6a81613c19565b600080604083850312156141de57600080fd5b82359150602083013561406c81613e8e565b7f4e487b7100000000000000000000000000000000000000000000000000000000600052603260045260246000fd5b60ff8116811461119e57600080fd5b60006020828403121561424057600080fd5b813561390b8161421f565b7f4e487b7100000000000000000000000000000000000000000000000000000000600052601160045260246000fd5b808201808211156109b9576109b961424b565b60007fffffffffffffffffffffffffffffffffffffffffffffffffffffffffffffffff82036142be576142be61424b565b5060010190565b6000602082840312156142d757600080fd5b5051919050565b80820281158282048414176109b9576109b961424b565b818103818111156109b9576109b961424b565b600060c0828403121561431a57600080fd5b82601f83011261432957600080fd5b60405160c0810181811067ffffffffffffffff8211171561434c5761434c613d21565b6040528060c084018581111561436157600080fd5b845b818110156143845780516143768161421f565b835260209283019201614363565b509195945050505050565b82815260e0810160208083018460005b60068110156143bf57815160ff168352918301919083019060010161439f565b505050509392505050565b6000602082840312156143dc57600080fd5b8151801515811461390b57600080fd5b60ff81811683821601908111156109b9576109b961424b565b600060ff821660ff810361441b5761441b61424b565b60010192915050565b600082601f83011261443557600080fd5b81516020614445613e3d83613dc8565b82815260059290921b8401810191818101908684111561446457600080fd5b8286015b8481101561448857805161447b81613c19565b8352918301918301614468565b509695505050505050565b600060208083850312156144a657600080fd5b825167ffffffffffffffff808211156144be57600080fd5b818501915085601f8301126144d257600080fd5b6144da613d50565b8060a08401888111156144ec57600080fd5b845b81811015614520578051858111156145065760008081fd5b6145128b828901614424565b8552509286019286016144ee565b509098975050505050505050565b60006020828403121561454057600080fd5b815167ffffffffffffffff81111561455757600080fd5b61456384828501614424565b949350505050565b600067ffffffffffffffff8083168181036145885761458861424b565b6001019392505050565b60ff82811682821603908111156109b9576109b961424b565b60208082528181018390526000908460408401835b868110156144885782356145d38161421f565b60ff16825291830191908301906001016145c0565b60008261461e577f4e487b7100000000000000000000000000000000000000000000000000000000600052601260045260246000fd5b500490565b805169ffffffffffffffffffff8116811461231857600080fd5b600080600080600060a0868803121561465557600080fd5b61465e86614623565b945060208601519350604086015192506060860151915061468160808701614623565b90509295509295909350565b60006020828403121561469f57600080fd5b815161390b8161421f565b600181815b8085111561470357817fffffffffffffffffffffffffffffffffffffffffffffffffffffffffffffffff048211156146e9576146e961424b565b808516156146f657918102915b93841c93908002906146af565b509250929050565b60008261471a575060016109b9565b81614727575060006109b9565b816001811461473d576002811461474757614763565b60019150506109b9565b60ff8411156147585761475861424b565b50506001821b6109b9565b5060208310610133831016604e8410600b8410161715614786575081810a6109b9565b61479083836146aa565b807fffffffffffffffffffffffffffffffffffffffffffffffffffffffffffffffff048211156147c2576147c261424b565b029392505050565b60006109b660ff84168361470b565b60007f8000000000000000000000000000000000000000000000000000000000000000820361480a5761480a61424b565b507fffffffffffffffffffffffffffffffffffffffffffffffffffffffffffffffff0190565b60008161480a5761480a61424b565b6000825160005b818110156148605760208186018101518583015201614846565b50600092019182525091905056fe608060405234801561001057600080fd5b506105fa806100206000396000f3fe6080604052600436106100705760003560e01c80638da5cb5b1161004e5780638da5cb5b146100c1578063e3a9db1a146100fb578063f2fde38b1461014c578063f340fa011461016c57600080fd5b806351cff8d914610075578063715018a6146100975780638129fc1c146100ac575b600080fd5b34801561008157600080fd5b50610095610090366004610560565b61017f565b005b3480156100a357600080fd5b50610095610210565b3480156100b857600080fd5b50610095610224565b3480156100cd57600080fd5b5060335460405173ffffffffffffffffffffffffffffffffffffffff90911681526020015b60405180910390f35b34801561010757600080fd5b5061013e610116366004610560565b73ffffffffffffffffffffffffffffffffffffffff1660009081526065602052604090205490565b6040519081526020016100f2565b34801561015857600080fd5b50610095610167366004610560565b610333565b61009561017a366004610560565b610364565b6101876103f0565b73ffffffffffffffffffffffffffffffffffffffff811660008181526065602052604081208054919055906101bc9082610414565b8173ffffffffffffffffffffffffffffffffffffffff167f7084f5476618d8e60b11ef0d7d3f06914655adb8793e28ff7f018d4c76d505d58260405161020491815260200190565b60405180910390a25050565b6102186103f0565b6102226000610493565b565b600054610100900460ff16158080156102445750600054600160ff909116105b8061025e5750303b15801561025e575060005460ff166001145b61026757600080fd5b600080547fffffffffffffffffffffffffffffffffffffffffffffffffffffffffffffff0016600117905580156102c557600080547fffffffffffffffffffffffffffffffffffffffffffffffffffffffffffff00ff166101001790555b6102cd61050a565b801561033057600080547fffffffffffffffffffffffffffffffffffffffffffffffffffffffffffff00ff169055604051600181527f7f26b83ff96e1f2b6a682f133852f6798a09c465da95921460cefb38474024989060200160405180910390a15b50565b61033b6103f0565b73ffffffffffffffffffffffffffffffffffffffff811661035b57600080fd5b61033081610493565b61036c6103f0565b73ffffffffffffffffffffffffffffffffffffffff81166000908152606560205260408120805434928392916103a3908490610584565b909155505060405181815273ffffffffffffffffffffffffffffffffffffffff8316907f2da466a7b24304f47e87fa2e1e5a81b9831ce54fec19055ce277ca2f39ba42c490602001610204565b60335473ffffffffffffffffffffffffffffffffffffffff16331461022257600080fd5b8047101561042157600080fd5b60008273ffffffffffffffffffffffffffffffffffffffff168260405160006040518083038185875af1925050503d806000811461047b576040519150601f19603f3d011682016040523d82523d6000602084013e610480565b606091505b505090508061048e57600080fd5b505050565b6033805473ffffffffffffffffffffffffffffffffffffffff8381167fffffffffffffffffffffffff0000000000000000000000000000000000000000831681179093556040519116919082907f8be0079c531659141344cd1fd0a4f28419497f9722a3daafe3b4186f6b6457e090600090a35050565b600054610100900460ff1661051e57600080fd5b610222600054610100900460ff1661053557600080fd5b61022233610493565b73ffffffffffffffffffffffffffffffffffffffff8116811461033057600080fd5b60006020828403121561057257600080fd5b813561057d8161053e565b9392505050565b808201808211156105be577f4e487b7100000000000000000000000000000000000000000000000000000000600052601160045260246000fd5b9291505056fea264697066735822122008917fbec8b48b6dc00fb6f4d2ee56328e7f41838564445708d934d18f076f4f64736f6c63430008110033416464726573733a206c6f772d6c6576656c2064656c65676174652063616c6c206661696c6564a26469706673582212207c671bc0d4b878ac8824f1d62e20b2b07cacda2be8d3013e576006ce3c8d852064736f6c63430008110033",
  "linkReferences": {
    "contracts/Drawing.sol": {
      "Drawing": [
        {
          "length": 20,
          "start": 2579
        },
        {
          "length": 20,
          "start": 3380
        },
        {
          "length": 20,
          "start": 3473
        },
        {
          "length": 20,
          "start": 4125
        },
        {
          "length": 20,
          "start": 4738
        },
        {
          "length": 20,
          "start": 8837
        },
        {
          "length": 20,
          "start": 12242
        },
        {
          "length": 20,
          "start": 12498
        }
      ]
    },
    "contracts/TicketIndex.sol": {
      "TicketIndex": [
        {
          "length": 20,
          "start": 6298
        }
      ]
    },
    "contracts/TicketSet.sol": {
      "TicketSet": [
        {
          "length": 20,
          "start": 5361
        }
      ]
    },
    "contracts/UserTickets.sol": {
      "UserTickets": [
        {
          "length": 20,
          "start": 5047
        },
        {
          "length": 20,
          "start": 6802
        },
        {
          "length": 20,
          "start": 7012
        },
        {
          "length": 20,
          "start": 14456
        }
      ]
    }
  },
  "deployedLinkReferences": {
    "contracts/Drawing.sol": {
      "Drawing": [
        {
          "length": 20,
          "start": 2378
        },
        {
          "length": 20,
          "start": 3179
        },
        {
          "length": 20,
          "start": 3272
        },
        {
          "length": 20,
          "start": 3924
        },
        {
          "length": 20,
          "start": 4537
        },
        {
          "length": 20,
          "start": 8636
        },
        {
          "length": 20,
          "start": 12041
        },
        {
          "length": 20,
          "start": 12297
        }
      ]
    },
    "contracts/TicketIndex.sol": {
      "TicketIndex": [
        {
          "length": 20,
          "start": 6097
        }
      ]
    },
    "contracts/TicketSet.sol": {
      "TicketSet": [
        {
          "length": 20,
          "start": 5160
        }
      ]
    },
    "contracts/UserTickets.sol": {
      "UserTickets": [
        {
          "length": 20,
          "start": 4846
        },
        {
          "length": 20,
          "start": 6601
        },
        {
          "length": 20,
          "start": 6811
        },
        {
          "length": 20,
          "start": 14255
        }
      ]
    }
  }
}