{
  "_format": "hh-sol-artifact-1",
  "contractName": "LotteryToken",
  "sourceName": "contracts/Token.sol",
  "abi": [
    {
      "inputs": [],
      "stateMutability": "nonpayable",
      "type": "constructor"
    },
    {
      "anonymous": false,
      "inputs": [
        {
          "indexed": true,
          "internalType": "address",
          "name": "owner",
          "type": "address"
        },
        {
          "indexed": true,
          "internalType": "address",
          "name": "spender",
          "type": "address"
        },
        {
          "indexed": false,
          "internalType": "uint256",
          "name": "value",
          "type": "uint256"
        }
      ],
      "name": "Approval",
      "type": "event"
    },
    {
      "anonymous": false,
      "inputs": [
        {
          "indexed": true,
          "internalType": "address",
          "name": "delegator",
          "type": "address"
        },
        {
          "indexed": true,
          "internalType": "address",
          "name": "fromDelegate",
          "type": "address"
        },
        {
          "indexed": true,
          "internalType": "address",
          "name": "toDelegate",
          "type": "address"
        }
      ],
      "name": "DelegateChanged",
      "type": "event"
    },
    {
      "anonymous": false,
      "inputs": [
        {
          "indexed": true,
          "internalType": "address",
          "name": "delegate",
          "type": "address"
        },
        {
          "indexed": false,
          "internalType": "uint256",
          "name": "previousBalance",
          "type": "uint256"
        },
        {
          "indexed": false,
          "internalType": "uint256",
          "name": "newBalance",
          "type": "uint256"
        }
      ],
      "name": "DelegateVotesChanged",
      "type": "event"
    },
    {
      "anonymous": false,
      "inputs": [
        {
          "indexed": true,
          "internalType": "address",
          "name": "previousOwner",
          "type": "address"
        },
        {
          "indexed": true,
          "internalType": "address",
          "name": "newOwner",
          "type": "address"
        }
      ],
      "name": "OwnershipTransferred",
      "type": "event"
    },
    {
      "anonymous": false,
      "inputs": [
        {
          "indexed": true,
          "internalType": "address",
          "name": "from",
          "type": "address"
        },
        {
          "indexed": true,
          "internalType": "address",
          "name": "to",
          "type": "address"
        },
        {
          "indexed": false,
          "internalType": "uint256",
          "name": "value",
          "type": "uint256"
        }
      ],
      "name": "Transfer",
      "type": "event"
    },
    {
      "inputs": [],
      "name": "DOMAIN_SEPARATOR",
      "outputs": [
        {
          "internalType": "bytes32",
          "name": "",
          "type": "bytes32"
        }
      ],
      "stateMutability": "view",
      "type": "function"
    },
    {
      "inputs": [
        {
          "internalType": "address",
          "name": "owner",
          "type": "address"
        },
        {
          "internalType": "address",
          "name": "spender",
          "type": "address"
        }
      ],
      "name": "allowance",
      "outputs": [
        {
          "internalType": "uint256",
          "name": "",
          "type": "uint256"
        }
      ],
      "stateMutability": "view",
      "type": "function"
    },
    {
      "inputs": [
        {
          "internalType": "address",
          "name": "spender",
          "type": "address"
        },
        {
          "internalType": "uint256",
          "name": "amount",
          "type": "uint256"
        }
      ],
      "name": "approve",
      "outputs": [
        {
          "internalType": "bool",
          "name": "",
          "type": "bool"
        }
      ],
      "stateMutability": "nonpayable",
      "type": "function"
    },
    {
      "inputs": [
        {
          "internalType": "address",
          "name": "account",
          "type": "address"
        }
      ],
      "name": "balanceOf",
      "outputs": [
        {
          "internalType": "uint256",
          "name": "",
          "type": "uint256"
        }
      ],
      "stateMutability": "view",
      "type": "function"
    },
    {
      "inputs": [
        {
          "internalType": "uint256",
          "name": "amount",
          "type": "uint256"
        }
      ],
      "name": "burn",
      "outputs": [],
      "stateMutability": "nonpayable",
      "type": "function"
    },
    {
      "inputs": [
        {
          "internalType": "address",
          "name": "account",
          "type": "address"
        },
        {
          "internalType": "uint256",
          "name": "amount",
          "type": "uint256"
        }
      ],
      "name": "burnFrom",
      "outputs": [],
      "stateMutability": "nonpayable",
      "type": "function"
    },
    {
      "inputs": [
        {
          "internalType": "address",
          "name": "account",
          "type": "address"
        },
        {
          "internalType": "uint32",
          "name": "pos",
          "type": "uint32"
        }
      ],
      "name": "checkpoints",
      "outputs": [
        {
          "components": [
            {
              "internalType": "uint32",
              "name": "fromBlock",
              "type": "uint32"
            },
            {
              "internalType": "uint224",
              "name": "votes",
              "type": "uint224"
            }
          ],
          "internalType": "struct ERC20Votes.Checkpoint",
          "name": "",
          "type": "tuple"
        }
      ],
      "stateMutability": "view",
      "type": "function"
    },
    {
      "inputs": [],
      "name": "decimals",
      "outputs": [
        {
          "internalType": "uint8",
          "name": "",
          "type": "uint8"
        }
      ],
      "stateMutability": "view",
      "type": "function"
    },
    {
      "inputs": [
        {
          "internalType": "address",
          "name": "spender",
          "type": "address"
        },
        {
          "internalType": "uint256",
          "name": "subtractedValue",
          "type": "uint256"
        }
      ],
      "name": "decreaseAllowance",
      "outputs": [
        {
          "internalType": "bool",
          "name": "",
          "type": "bool"
        }
      ],
      "stateMutability": "nonpayable",
      "type": "function"
    },
    {
      "inputs": [
        {
          "internalType": "address",
          "name": "delegatee",
          "type": "address"
        }
      ],
      "name": "delegate",
      "outputs": [],
      "stateMutability": "nonpayable",
      "type": "function"
    },
    {
      "inputs": [
        {
          "internalType": "address",
          "name": "delegatee",
          "type": "address"
        },
        {
          "internalType": "uint256",
          "name": "nonce",
          "type": "uint256"
        },
        {
          "internalType": "uint256",
          "name": "expiry",
          "type": "uint256"
        },
        {
          "internalType": "uint8",
          "name": "v",
          "type": "uint8"
        },
        {
          "internalType": "bytes32",
          "name": "r",
          "type": "bytes32"
        },
        {
          "internalType": "bytes32",
          "name": "s",
          "type": "bytes32"
        }
      ],
      "name": "delegateBySig",
      "outputs": [],
      "stateMutability": "nonpayable",
      "type": "function"
    },
    {
      "inputs": [
        {
          "internalType": "address",
          "name": "account",
          "type": "address"
        }
      ],
      "name": "delegates",
      "outputs": [
        {
          "internalType": "address",
          "name": "",
          "type": "address"
        }
      ],
      "stateMutability": "pure",
      "type": "function"
    },
    {
      "inputs": [
        {
          "internalType": "uint256",
          "name": "blockNumber",
          "type": "uint256"
        }
      ],
      "name": "getPastTotalSupply",
      "outputs": [
        {
          "internalType": "uint256",
          "name": "",
          "type": "uint256"
        }
      ],
      "stateMutability": "view",
      "type": "function"
    },
    {
      "inputs": [
        {
          "internalType": "address",
          "name": "account",
          "type": "address"
        },
        {
          "internalType": "uint256",
          "name": "blockNumber",
          "type": "uint256"
        }
      ],
      "name": "getPastVotes",
      "outputs": [
        {
          "internalType": "uint256",
          "name": "",
          "type": "uint256"
        }
      ],
      "stateMutability": "view",
      "type": "function"
    },
    {
      "inputs": [
        {
          "internalType": "address",
          "name": "account",
          "type": "address"
        }
      ],
      "name": "getVotes",
      "outputs": [
        {
          "internalType": "uint256",
          "name": "",
          "type": "uint256"
        }
      ],
      "stateMutability": "view",
      "type": "function"
    },
    {
      "inputs": [
        {
          "internalType": "address",
          "name": "spender",
          "type": "address"
        },
        {
          "internalType": "uint256",
          "name": "addedValue",
          "type": "uint256"
        }
      ],
      "name": "increaseAllowance",
      "outputs": [
        {
          "internalType": "bool",
          "name": "",
          "type": "bool"
        }
      ],
      "stateMutability": "nonpayable",
      "type": "function"
    },
    {
      "inputs": [],
      "name": "name",
      "outputs": [
        {
          "internalType": "string",
          "name": "",
          "type": "string"
        }
      ],
      "stateMutability": "view",
      "type": "function"
    },
    {
      "inputs": [
        {
          "internalType": "address",
          "name": "owner",
          "type": "address"
        }
      ],
      "name": "nonces",
      "outputs": [
        {
          "internalType": "uint256",
          "name": "",
          "type": "uint256"
        }
      ],
      "stateMutability": "view",
      "type": "function"
    },
    {
      "inputs": [
        {
          "internalType": "address",
          "name": "account",
          "type": "address"
        }
      ],
      "name": "numCheckpoints",
      "outputs": [
        {
          "internalType": "uint32",
          "name": "",
          "type": "uint32"
        }
      ],
      "stateMutability": "view",
      "type": "function"
    },
    {
      "inputs": [],
      "name": "owner",
      "outputs": [
        {
          "internalType": "address",
          "name": "",
          "type": "address"
        }
      ],
      "stateMutability": "view",
      "type": "function"
    },
    {
      "inputs": [
        {
          "internalType": "address",
          "name": "owner",
          "type": "address"
        },
        {
          "internalType": "address",
          "name": "spender",
          "type": "address"
        },
        {
          "internalType": "uint256",
          "name": "value",
          "type": "uint256"
        },
        {
          "internalType": "uint256",
          "name": "deadline",
          "type": "uint256"
        },
        {
          "internalType": "uint8",
          "name": "v",
          "type": "uint8"
        },
        {
          "internalType": "bytes32",
          "name": "r",
          "type": "bytes32"
        },
        {
          "internalType": "bytes32",
          "name": "s",
          "type": "bytes32"
        }
      ],
      "name": "permit",
      "outputs": [],
      "stateMutability": "nonpayable",
      "type": "function"
    },
    {
      "inputs": [],
      "name": "renounceOwnership",
      "outputs": [],
      "stateMutability": "nonpayable",
      "type": "function"
    },
    {
      "inputs": [],
      "name": "symbol",
      "outputs": [
        {
          "internalType": "string",
          "name": "",
          "type": "string"
        }
      ],
      "stateMutability": "view",
      "type": "function"
    },
    {
      "inputs": [],
      "name": "totalSupply",
      "outputs": [
        {
          "internalType": "uint256",
          "name": "",
          "type": "uint256"
        }
      ],
      "stateMutability": "view",
      "type": "function"
    },
    {
      "inputs": [
        {
          "internalType": "address",
          "name": "to",
          "type": "address"
        },
        {
          "internalType": "uint256",
          "name": "amount",
          "type": "uint256"
        }
      ],
      "name": "transfer",
      "outputs": [
        {
          "internalType": "bool",
          "name": "",
          "type": "bool"
        }
      ],
      "stateMutability": "nonpayable",
      "type": "function"
    },
    {
      "inputs": [
        {
          "internalType": "address",
          "name": "from",
          "type": "address"
        },
        {
          "internalType": "address",
          "name": "to",
          "type": "address"
        },
        {
          "internalType": "uint256",
          "name": "amount",
          "type": "uint256"
        }
      ],
      "name": "transferFrom",
      "outputs": [
        {
          "internalType": "bool",
          "name": "",
          "type": "bool"
        }
      ],
      "stateMutability": "nonpayable",
      "type": "function"
    },
    {
      "inputs": [
        {
          "internalType": "address",
          "name": "newOwner",
          "type": "address"
        }
      ],
      "name": "transferOwnership",
      "outputs": [],
      "stateMutability": "nonpayable",
      "type": "function"
    }
  ],
  "bytecode": "0x6101406040523480156200001257600080fd5b506040518060400160405280600c81526020016b45746865726e614c6f74746f60a01b81525080604051806040016040528060018152602001603160f81b8152506040518060400160405280600c81526020016b45746865726e614c6f74746f60a01b81525060405180604001604052806004815260200163115313d560e21b815250620000af620000a96200017e60201b60201c565b62000182565b6004620000bd8382620006d5565b506005620000cc8282620006d5565b5050825160209384012082519284019290922060e08390526101008190524660a0818152604080517f8b73c3c69bb8fe3d512ecc4cf759cc79239f7b179b0ffacaa9a75d522b39400f818901819052818301979097526060810194909452608080850193909352308483018190528151808603909301835260c0948501909152815191909601209052929092526101205250620001789050336b033b2e3c9fd0803ce8000000620001d2565b620007e3565b3390565b600080546001600160a01b038381166001600160a01b0319831681178455604051919092169283917f8be0079c531659141344cd1fd0a4f28419497f9722a3daafe3b4186f6b6457e09190a35050565b620001e98282620001ed60201b62000a7f1760201c565b5050565b6200020482826200024360201b62000ac81760201c565b6001600160e01b0362000218620002ce8216565b11156200022457600080fd5b6200023d600a62000b68620002d460201b1783620002eb565b50505050565b6001600160a01b0382166200025757600080fd5b80600360008282546200026b9190620007b7565b90915550506001600160a01b0382166000818152600160209081526040808320805486019055518481527fddf252ad1be2c89b69c2b068fc378daa952ba7f163c4a11628f55a4df523b3ef910160405180910390a3620001e96000838362000482565b60035490565b6000620002e28284620007b7565b90505b92915050565b825460009081908181156200034b576200031a876200030c600185620007cd565b600091825260209091200190565b60408051808201909152905463ffffffff8116825264010000000090046001600160e01b0316602082015262000360565b60408051808201909152600080825260208201525b905080602001516001600160e01b031693506200037e84868860201c565b9250600082118015620003975750805163ffffffff1643145b15620003ee57620003b3836200049a60201b62000b741760201c565b620003c5886200030c600186620007cd565b80546001600160e01b03929092166401000000000263ffffffff90921691909117905562000473565b8660405180604001604052806200041043620004b560201b62000ba31760201c565b63ffffffff16815260200162000431866200049a60201b62000b741760201c565b6001600160e01b0390811690915282546001810184556000938452602093849020835194909301519091166401000000000263ffffffff909316929092179101555b5050935093915050565b505050565b6200047d838383620004c960201b62000bb61760201c565b60006001600160e01b03821115620004b157600080fd5b5090565b600063ffffffff821115620004b157600080fd5b620004e18383836200047d60201b62000bc11760201c565b6200047d838383816001600160a01b0316836001600160a01b0316141580156200050b5750600081115b156200047d576001600160a01b0383161562000598576001600160a01b03831660009081526009602090815260408220829162000555919062000623901b62000bc61785620002eb565b91509150846001600160a01b03166000805160206200253683398151915283836040516200058d929190918252602082015260400190565b60405180910390a250505b6001600160a01b038216156200047d576001600160a01b038216600090815260096020908152604082208291620005dc9190620002d4901b62000b681785620002eb565b91509150836001600160a01b031660008051602062002536833981519152838360405162000614929190918252602082015260400190565b60405180910390a25050505050565b6000620002e28284620007cd565b634e487b7160e01b600052604160045260246000fd5b600181811c908216806200065c57607f821691505b6020821081036200067d57634e487b7160e01b600052602260045260246000fd5b50919050565b601f8211156200047d57600081815260208120601f850160051c81016020861015620006ac5750805b601f850160051c820191505b81811015620006cd57828155600101620006b8565b505050505050565b81516001600160401b03811115620006f157620006f162000631565b620007098162000702845462000647565b8462000683565b602080601f831160018114620007415760008415620007285750858301515b600019600386901b1c1916600185901b178555620006cd565b600085815260208120601f198616915b82811015620007725788860151825594840194600190910190840162000751565b5085821015620007915787850151600019600388901b60f8161c191681555b5050505050600190811b01905550565b634e487b7160e01b600052601160045260246000fd5b80820180821115620002e557620002e5620007a1565b81810381811115620002e557620002e5620007a1565b60805160a05160c05160e0516101005161012051611d03620008336000396000610e7e01526000610ecd01526000610ea801526000610e0101526000610e2b01526000610e550152611d036000f3fe608060405234801561001057600080fd5b50600436106101b95760003560e01c8063715018a6116100f9578063a457c2d711610097578063d505accf11610071578063d505accf146103d0578063dd62ed3e146103e3578063f1127ed814610429578063f2fde38b1461047b57600080fd5b8063a457c2d714610397578063a9059cbb146103aa578063c3cda520146103bd57600080fd5b80638da5cb5b116100d35780638da5cb5b1461034b5780638e539e8c1461036957806395d89b411461037c5780639ab24eb01461038457600080fd5b8063715018a61461031d57806379cc6790146103255780637ecebe001461033857600080fd5b80633950935111610166578063587cde1e11610140578063587cde1e146102765780635c19a95c146102ac5780636fcfff45146102bf57806370a08231146102e757600080fd5b8063395093511461023b5780633a46b1a81461024e57806342966c681461026157600080fd5b806323b872dd1161019757806323b872dd14610211578063313ce567146102245780633644e5151461023357600080fd5b806306fdde03146101be578063095ea7b3146101dc57806318160ddd146101ff575b600080fd5b6101c661048e565b6040516101d391906118ee565b60405180910390f35b6101ef6101ea366004611983565b610520565b60405190151581526020016101d3565b6003545b6040519081526020016101d3565b6101ef61021f3660046119ad565b61053a565b604051601281526020016101d3565b61020361055e565b6101ef610249366004611983565b61056d565b61020361025c366004611983565b6105b9565b61027461026f3660046119e9565b6105fd565b005b610287610284366004611a02565b90565b60405173ffffffffffffffffffffffffffffffffffffffff90911681526020016101d3565b6102746102ba366004611a02565b61060a565b6102d26102cd366004611a02565b610612565b60405163ffffffff90911681526020016101d3565b6102036102f5366004611a02565b73ffffffffffffffffffffffffffffffffffffffff1660009081526001602052604090205490565b610274610641565b610274610333366004611983565b610655565b610203610346366004611a02565b61066e565b60005473ffffffffffffffffffffffffffffffffffffffff16610287565b6102036103773660046119e9565b610699565b6101c66106b2565b610203610392366004611a02565b6106c1565b6101ef6103a5366004611983565b61078c565b6101ef6103b8366004611983565b6107da565b6102746103cb366004611a2e565b6107e8565b6102746103de366004611a86565b6108a3565b6102036103f1366004611af0565b73ffffffffffffffffffffffffffffffffffffffff918216600090815260026020908152604080832093909416825291909152205490565b61043c610437366004611b23565b6109a8565b60408051825163ffffffff1681526020928301517bffffffffffffffffffffffffffffffffffffffffffffffffffffffff1692810192909252016101d3565b610274610489366004611a02565b610a4e565b60606004805461049d90611b63565b80601f01602080910402602001604051908101604052809291908181526020018280546104c990611b63565b80156105165780601f106104eb57610100808354040283529160200191610516565b820191906000526020600020905b8154815290600101906020018083116104f957829003601f168201915b5050505050905090565b60003361052e818585610bd2565b60019150505b92915050565b600033610548858285610c80565b610553858585610cf4565b506001949350505050565b6000610568610de7565b905090565b33600081815260026020908152604080832073ffffffffffffffffffffffffffffffffffffffff8716845290915281205490919061052e90829086906105b4908790611bdf565b610bd2565b60004382106105c757600080fd5b73ffffffffffffffffffffffffffffffffffffffff831660009081526009602052604090206105f69083610f1b565b9392505050565b610607338261103c565b50565b610607600080fd5b73ffffffffffffffffffffffffffffffffffffffff811660009081526009602052604081205461053490610ba3565b610649611046565b610653600061106a565b565b610660823383610c80565b61066a828261103c565b5050565b73ffffffffffffffffffffffffffffffffffffffff8116600090815260066020526040812054610534565b60004382106106a757600080fd5b610534600a83610f1b565b60606005805461049d90611b63565b73ffffffffffffffffffffffffffffffffffffffff811660009081526009602052604081205480156107645773ffffffffffffffffffffffffffffffffffffffff8316600090815260096020526040902061071d600183611bf2565b8154811061072d5761072d611c05565b60009182526020909120015464010000000090047bffffffffffffffffffffffffffffffffffffffffffffffffffffffff16610767565b60005b7bffffffffffffffffffffffffffffffffffffffffffffffffffffffff169392505050565b33600081815260026020908152604080832073ffffffffffffffffffffffffffffffffffffffff87168452909152812054909190838110156107cd57600080fd5b6105538286868403610bd2565b60003361052e818585610cf4565b834211156107f557600080fd5b604080517fe48329057bfd03d55e49b547132e39cffd9c1820ad7b9d4c5307691425d15adf602082015273ffffffffffffffffffffffffffffffffffffffff881691810191909152606081018690526080810185905260009061087c906108749060a001604051602081830303815290604052805190602001206110df565b858585611148565b905061088781611170565b861461089257600080fd5b61089a600080fd5b50505050505050565b834211156108b057600080fd5b60007f6e71edae12b1b97f4d1f60370fef10105fa2faae0126114a169c64845d6126c98888886108df8c611170565b60408051602081019690965273ffffffffffffffffffffffffffffffffffffffff94851690860152929091166060840152608083015260a082015260c0810186905260e0016040516020818303038152906040528051906020012090506000610947826110df565b9050600061095782878787611148565b90508973ffffffffffffffffffffffffffffffffffffffff168173ffffffffffffffffffffffffffffffffffffffff161461099157600080fd5b61099c8a8a8a610bd2565b50505050505050505050565b604080518082019091526000808252602082015273ffffffffffffffffffffffffffffffffffffffff83166000908152600960205260409020805463ffffffff84169081106109f9576109f9611c05565b60009182526020918290206040805180820190915291015463ffffffff8116825264010000000090047bffffffffffffffffffffffffffffffffffffffffffffffffffffffff16918101919091529392505050565b610a56611046565b73ffffffffffffffffffffffffffffffffffffffff8116610a7657600080fd5b6106078161106a565b610a898282610ac8565b6003547bffffffffffffffffffffffffffffffffffffffffffffffffffffffff1015610ab457600080fd5b610ac2600a610b68836111a5565b50505050565b73ffffffffffffffffffffffffffffffffffffffff8216610ae857600080fd5b8060036000828254610afa9190611bdf565b909155505073ffffffffffffffffffffffffffffffffffffffff82166000818152600160209081526040808320805486019055518481527fddf252ad1be2c89b69c2b068fc378daa952ba7f163c4a11628f55a4df523b3ef910160405180910390a361066a6000838361134d565b60006105f68284611bdf565b60007bffffffffffffffffffffffffffffffffffffffffffffffffffffffff821115610b9f57600080fd5b5090565b600063ffffffff821115610b9f57600080fd5b610bc1838383611358565b505050565b60006105f68284611bf2565b73ffffffffffffffffffffffffffffffffffffffff8316610bf257600080fd5b73ffffffffffffffffffffffffffffffffffffffff8216610c1257600080fd5b73ffffffffffffffffffffffffffffffffffffffff83811660008181526002602090815260408083209487168084529482529182902085905590518481527f8c5be1e5ebec7d5bd14f71427d1e84f3dd0314c0f7b2291e5b200ac8c7c3b925910160405180910390a3505050565b73ffffffffffffffffffffffffffffffffffffffff8381166000908152600260209081526040808320938616835292905220547fffffffffffffffffffffffffffffffffffffffffffffffffffffffffffffffff8114610ac25781811015610ce757600080fd5b610ac28484848403610bd2565b73ffffffffffffffffffffffffffffffffffffffff8316610d1457600080fd5b73ffffffffffffffffffffffffffffffffffffffff8216610d3457600080fd5b73ffffffffffffffffffffffffffffffffffffffff831660009081526001602052604090205481811015610d6757600080fd5b73ffffffffffffffffffffffffffffffffffffffff80851660008181526001602052604080822086860390559286168082529083902080548601905591517fddf252ad1be2c89b69c2b068fc378daa952ba7f163c4a11628f55a4df523b3ef90610dd49086815260200190565b60405180910390a3610ac284848461134d565b60003073ffffffffffffffffffffffffffffffffffffffff7f000000000000000000000000000000000000000000000000000000000000000016148015610e4d57507f000000000000000000000000000000000000000000000000000000000000000046145b15610e7757507f000000000000000000000000000000000000000000000000000000000000000090565b50604080517f00000000000000000000000000000000000000000000000000000000000000006020808301919091527f0000000000000000000000000000000000000000000000000000000000000000828401527f000000000000000000000000000000000000000000000000000000000000000060608301524660808301523060a0808401919091528351808403909101815260c0909201909252805191012090565b815460009081816005811115610f75576000610f36846114fd565b610f409085611bf2565b600088815260209020909150869082015463ffffffff161115610f6557809150610f73565b610f70816001611bdf565b92505b505b80821015610fc2576000610f8983836115e5565b600088815260209020909150869082015463ffffffff161115610fae57809150610fbc565b610fb9816001611bdf565b92505b50610f75565b801561101157610fe586610fd7600184611bf2565b600091825260209091200190565b5464010000000090047bffffffffffffffffffffffffffffffffffffffffffffffffffffffff16611014565b60005b7bffffffffffffffffffffffffffffffffffffffffffffffffffffffff169695505050505050565b61066a8282611600565b60005473ffffffffffffffffffffffffffffffffffffffff16331461065357600080fd5b6000805473ffffffffffffffffffffffffffffffffffffffff8381167fffffffffffffffffffffffff0000000000000000000000000000000000000000831681178455604051919092169283917f8be0079c531659141344cd1fd0a4f28419497f9722a3daafe3b4186f6b6457e09190a35050565b60006105346110ec610de7565b836040517f19010000000000000000000000000000000000000000000000000000000000006020820152602281018390526042810182905260009060620160405160208183030381529060405280519060200120905092915050565b600080600061115987878787611618565b9150915061116681611707565b5095945050505050565b73ffffffffffffffffffffffffffffffffffffffff811660009081526006602052604090208054600181018255905b50919050565b82546000908190818115611207576111c287610fd7600185611bf2565b60408051808201909152905463ffffffff8116825264010000000090047bffffffffffffffffffffffffffffffffffffffffffffffffffffffff16602082015261121c565b60408051808201909152600080825260208201525b905080602001517bffffffffffffffffffffffffffffffffffffffffffffffffffffffff16935061125184868863ffffffff16565b92506000821180156112695750805163ffffffff1643145b156112c35761127783610b74565b61128688610fd7600186611bf2565b80547bffffffffffffffffffffffffffffffffffffffffffffffffffffffff929092166401000000000263ffffffff909216919091179055611343565b8660405180604001604052806112d843610ba3565b63ffffffff1681526020016112ec86610b74565b7bffffffffffffffffffffffffffffffffffffffffffffffffffffffff90811690915282546001810184556000938452602093849020835194909301519091166401000000000263ffffffff909316929092179101555b5050935093915050565b610bc1838383610bb6565b8173ffffffffffffffffffffffffffffffffffffffff168373ffffffffffffffffffffffffffffffffffffffff16141580156113945750600081115b15610bc15773ffffffffffffffffffffffffffffffffffffffff8316156114495773ffffffffffffffffffffffffffffffffffffffff8316600090815260096020526040812081906113e990610bc6856111a5565b915091508473ffffffffffffffffffffffffffffffffffffffff167fdec2bacdd2f05b59de34da9b523dff8be42e5e38e818c82fdb0bae774387a724838360405161143e929190918252602082015260400190565b60405180910390a250505b73ffffffffffffffffffffffffffffffffffffffff821615610bc15773ffffffffffffffffffffffffffffffffffffffff82166000908152600960205260408120819061149990610b68856111a5565b915091508373ffffffffffffffffffffffffffffffffffffffff167fdec2bacdd2f05b59de34da9b523dff8be42e5e38e818c82fdb0bae774387a72483836040516114ee929190918252602082015260400190565b60405180910390a25050505050565b60008160000361150f57506000919050565b6000600161151c8461177d565b901c6001901b9050600181848161153557611535611c34565b048201901c9050600181848161154d5761154d611c34565b048201901c9050600181848161156557611565611c34565b048201901c9050600181848161157d5761157d611c34565b048201901c9050600181848161159557611595611c34565b048201901c905060018184816115ad576115ad611c34565b048201901c905060018184816115c5576115c5611c34565b048201901c90506105f6818285816115df576115df611c34565b04611811565b60006115f46002848418611c63565b6105f690848416611bdf565b61160a8282611827565b610ac2600a610bc6836111a5565b6000807f7fffffffffffffffffffffffffffffff5d576e7357a4501ddfe92f46681b20a083111561164f57506000905060036116fe565b6040805160008082526020820180845289905260ff881692820192909252606081018690526080810185905260019060a0016020604051602081039080840390855afa1580156116a3573d6000803e3d6000fd5b50506040517fffffffffffffffffffffffffffffffffffffffffffffffffffffffffffffffe0015191505073ffffffffffffffffffffffffffffffffffffffff81166116f7576000600192509250506116fe565b9150600090505b94509492505050565b600081600481111561171b5761171b611c9e565b036117235750565b600181600481111561173757611737611c9e565b0361174157600080fd5b600281600481111561175557611755611c9e565b0361175f57600080fd5b600381600481111561177357611773611c9e565b0361060757600080fd5b600080608083901c1561179257608092831c92015b604083901c156117a457604092831c92015b602083901c156117b657602092831c92015b601083901c156117c857601092831c92015b600883901c156117da57600892831c92015b600483901c156117ec57600492831c92015b600283901c156117fe57600292831c92015b600183901c156105345760010192915050565b600081831061182057816105f6565b5090919050565b73ffffffffffffffffffffffffffffffffffffffff821661184757600080fd5b73ffffffffffffffffffffffffffffffffffffffff82166000908152600160205260409020548181101561187a57600080fd5b73ffffffffffffffffffffffffffffffffffffffff831660008181526001602090815260408083208686039055600380548790039055518581529192917fddf252ad1be2c89b69c2b068fc378daa952ba7f163c4a11628f55a4df523b3ef910160405180910390a3610bc18360008461134d565b600060208083528351808285015260005b8181101561191b578581018301518582016040015282016118ff565b5060006040828601015260407fffffffffffffffffffffffffffffffffffffffffffffffffffffffffffffffe0601f8301168501019250505092915050565b803573ffffffffffffffffffffffffffffffffffffffff8116811461197e57600080fd5b919050565b6000806040838503121561199657600080fd5b61199f8361195a565b946020939093013593505050565b6000806000606084860312156119c257600080fd5b6119cb8461195a565b92506119d96020850161195a565b9150604084013590509250925092565b6000602082840312156119fb57600080fd5b5035919050565b600060208284031215611a1457600080fd5b6105f68261195a565b803560ff8116811461197e57600080fd5b60008060008060008060c08789031215611a4757600080fd5b611a508761195a565b95506020870135945060408701359350611a6c60608801611a1d565b92506080870135915060a087013590509295509295509295565b600080600080600080600060e0888a031215611aa157600080fd5b611aaa8861195a565b9650611ab86020890161195a565b95506040880135945060608801359350611ad460808901611a1d565b925060a0880135915060c0880135905092959891949750929550565b60008060408385031215611b0357600080fd5b611b0c8361195a565b9150611b1a6020840161195a565b90509250929050565b60008060408385031215611b3657600080fd5b611b3f8361195a565b9150602083013563ffffffff81168114611b5857600080fd5b809150509250929050565b600181811c90821680611b7757607f821691505b60208210810361119f577f4e487b7100000000000000000000000000000000000000000000000000000000600052602260045260246000fd5b7f4e487b7100000000000000000000000000000000000000000000000000000000600052601160045260246000fd5b8082018082111561053457610534611bb0565b8181038181111561053457610534611bb0565b7f4e487b7100000000000000000000000000000000000000000000000000000000600052603260045260246000fd5b7f4e487b7100000000000000000000000000000000000000000000000000000000600052601260045260246000fd5b600082611c99577f4e487b7100000000000000000000000000000000000000000000000000000000600052601260045260246000fd5b500490565b7f4e487b7100000000000000000000000000000000000000000000000000000000600052602160045260246000fdfea2646970667358221220061226160e291401ec8d4969058c69ab26ed210062034c9de7170b1b4c03be8f64736f6c63430008110033dec2bacdd2f05b59de34da9b523dff8be42e5e38e818c82fdb0bae774387a724",
  "linkReferences": {},
  "deployedLinkReferences": {}
}